{
    "abi": [
        {
            "type": "constructor",
            "inputs": [
                {
                    "name": "initialOwner",
                    "type": "address",
                    "internalType": "address"
                }
            ],
            "stateMutability": "nonpayable"
        },
        {
            "type": "function",
            "name": "allowance",
            "inputs": [
                {
                    "name": "owner",
                    "type": "address",
                    "internalType": "address"
                },
                {
                    "name": "spender",
                    "type": "address",
                    "internalType": "address"
                },
                {
                    "name": "id",
                    "type": "uint256",
                    "internalType": "uint256"
                }
            ],
            "outputs": [
                {
                    "name": "amount",
                    "type": "uint256",
                    "internalType": "uint256"
                }
            ],
            "stateMutability": "view"
        },
        {
            "type": "function",
            "name": "approve",
            "inputs": [
                {
                    "name": "spender",
                    "type": "address",
                    "internalType": "address"
                },
                {
                    "name": "id",
                    "type": "uint256",
                    "internalType": "uint256"
                },
                {
                    "name": "amount",
                    "type": "uint256",
                    "internalType": "uint256"
                }
            ],
            "outputs": [
                {
                    "name": "",
                    "type": "bool",
                    "internalType": "bool"
                }
            ],
            "stateMutability": "nonpayable"
        },
        {
            "type": "function",
            "name": "balanceOf",
            "inputs": [
                {
                    "name": "owner",
                    "type": "address",
                    "internalType": "address"
                },
                {
                    "name": "id",
                    "type": "uint256",
                    "internalType": "uint256"
                }
            ],
            "outputs": [
                {
                    "name": "balance",
                    "type": "uint256",
                    "internalType": "uint256"
                }
            ],
            "stateMutability": "view"
        },
        {
            "type": "function",
            "name": "burn",
            "inputs": [
                {
                    "name": "from",
                    "type": "address",
                    "internalType": "address"
                },
                {
                    "name": "id",
                    "type": "uint256",
                    "internalType": "uint256"
                },
                {
                    "name": "amount",
                    "type": "uint256",
                    "internalType": "uint256"
                }
            ],
            "outputs": [],
            "stateMutability": "nonpayable"
        },
        {
            "type": "function",
            "name": "clear",
            "inputs": [
                {
                    "name": "currency",
                    "type": "address",
                    "internalType": "Currency"
                },
                {
                    "name": "amount",
                    "type": "uint256",
                    "internalType": "uint256"
                }
            ],
            "outputs": [],
            "stateMutability": "nonpayable"
        },
        {
            "type": "function",
            "name": "collectProtocolFees",
            "inputs": [
                {
                    "name": "recipient",
                    "type": "address",
                    "internalType": "address"
                },
                {
                    "name": "currency",
                    "type": "address",
                    "internalType": "Currency"
                },
                {
                    "name": "amount",
                    "type": "uint256",
                    "internalType": "uint256"
                }
            ],
            "outputs": [
                {
                    "name": "amountCollected",
                    "type": "uint256",
                    "internalType": "uint256"
                }
            ],
            "stateMutability": "nonpayable"
        },
        {
            "type": "function",
            "name": "donate",
            "inputs": [
                {
                    "name": "key",
                    "type": "tuple",
                    "internalType": "struct PoolKey",
                    "components": [
                        {
                            "name": "currency0",
                            "type": "address",
                            "internalType": "Currency"
                        },
                        {
                            "name": "currency1",
                            "type": "address",
                            "internalType": "Currency"
                        },
                        {
                            "name": "fee",
                            "type": "uint24",
                            "internalType": "uint24"
                        },
                        {
                            "name": "tickSpacing",
                            "type": "int24",
                            "internalType": "int24"
                        },
                        {
                            "name": "hooks",
                            "type": "address",
                            "internalType": "contract IHooks"
                        }
                    ]
                },
                {
                    "name": "amount0",
                    "type": "uint256",
                    "internalType": "uint256"
                },
                {
                    "name": "amount1",
                    "type": "uint256",
                    "internalType": "uint256"
                },
                {
                    "name": "hookData",
                    "type": "bytes",
                    "internalType": "bytes"
                }
            ],
            "outputs": [
                {
                    "name": "delta",
                    "type": "int256",
                    "internalType": "BalanceDelta"
                }
            ],
            "stateMutability": "nonpayable"
        },
        {
            "type": "function",
            "name": "extsload",
            "inputs": [
                {
                    "name": "slot",
                    "type": "bytes32",
                    "internalType": "bytes32"
                }
            ],
            "outputs": [
                {
                    "name": "",
                    "type": "bytes32",
                    "internalType": "bytes32"
                }
            ],
            "stateMutability": "view"
        },
        {
            "type": "function",
            "name": "extsload",
            "inputs": [
                {
                    "name": "startSlot",
                    "type": "bytes32",
                    "internalType": "bytes32"
                },
                {
                    "name": "nSlots",
                    "type": "uint256",
                    "internalType": "uint256"
                }
            ],
            "outputs": [
                {
                    "name": "",
                    "type": "bytes32[]",
                    "internalType": "bytes32[]"
                }
            ],
            "stateMutability": "view"
        },
        {
            "type": "function",
            "name": "extsload",
            "inputs": [
                {
                    "name": "slots",
                    "type": "bytes32[]",
                    "internalType": "bytes32[]"
                }
            ],
            "outputs": [
                {
                    "name": "",
                    "type": "bytes32[]",
                    "internalType": "bytes32[]"
                }
            ],
            "stateMutability": "view"
        },
        {
            "type": "function",
            "name": "exttload",
            "inputs": [
                {
                    "name": "slots",
                    "type": "bytes32[]",
                    "internalType": "bytes32[]"
                }
            ],
            "outputs": [
                {
                    "name": "",
                    "type": "bytes32[]",
                    "internalType": "bytes32[]"
                }
            ],
            "stateMutability": "view"
        },
        {
            "type": "function",
            "name": "exttload",
            "inputs": [
                {
                    "name": "slot",
                    "type": "bytes32",
                    "internalType": "bytes32"
                }
            ],
            "outputs": [
                {
                    "name": "",
                    "type": "bytes32",
                    "internalType": "bytes32"
                }
            ],
            "stateMutability": "view"
        },
        {
            "type": "function",
            "name": "initialize",
            "inputs": [
                {
                    "name": "key",
                    "type": "tuple",
                    "internalType": "struct PoolKey",
                    "components": [
                        {
                            "name": "currency0",
                            "type": "address",
                            "internalType": "Currency"
                        },
                        {
                            "name": "currency1",
                            "type": "address",
                            "internalType": "Currency"
                        },
                        {
                            "name": "fee",
                            "type": "uint24",
                            "internalType": "uint24"
                        },
                        {
                            "name": "tickSpacing",
                            "type": "int24",
                            "internalType": "int24"
                        },
                        {
                            "name": "hooks",
                            "type": "address",
                            "internalType": "contract IHooks"
                        }
                    ]
                },
                {
                    "name": "sqrtPriceX96",
                    "type": "uint160",
                    "internalType": "uint160"
                }
            ],
            "outputs": [
                {
                    "name": "tick",
                    "type": "int24",
                    "internalType": "int24"
                }
            ],
            "stateMutability": "nonpayable"
        },
        {
            "type": "function",
            "name": "isOperator",
            "inputs": [
                {
                    "name": "owner",
                    "type": "address",
                    "internalType": "address"
                },
                {
                    "name": "operator",
                    "type": "address",
                    "internalType": "address"
                }
            ],
            "outputs": [
                {
                    "name": "isOperator",
                    "type": "bool",
                    "internalType": "bool"
                }
            ],
            "stateMutability": "view"
        },
        {
            "type": "function",
            "name": "mint",
            "inputs": [
                {
                    "name": "to",
                    "type": "address",
                    "internalType": "address"
                },
                {
                    "name": "id",
                    "type": "uint256",
                    "internalType": "uint256"
                },
                {
                    "name": "amount",
                    "type": "uint256",
                    "internalType": "uint256"
                }
            ],
            "outputs": [],
            "stateMutability": "nonpayable"
        },
        {
            "type": "function",
            "name": "modifyLiquidity",
            "inputs": [
                {
                    "name": "key",
                    "type": "tuple",
                    "internalType": "struct PoolKey",
                    "components": [
                        {
                            "name": "currency0",
                            "type": "address",
                            "internalType": "Currency"
                        },
                        {
                            "name": "currency1",
                            "type": "address",
                            "internalType": "Currency"
                        },
                        {
                            "name": "fee",
                            "type": "uint24",
                            "internalType": "uint24"
                        },
                        {
                            "name": "tickSpacing",
                            "type": "int24",
                            "internalType": "int24"
                        },
                        {
                            "name": "hooks",
                            "type": "address",
                            "internalType": "contract IHooks"
                        }
                    ]
                },
                {
                    "name": "params",
                    "type": "tuple",
                    "internalType": "struct ModifyLiquidityParams",
                    "components": [
                        {
                            "name": "tickLower",
                            "type": "int24",
                            "internalType": "int24"
                        },
                        {
                            "name": "tickUpper",
                            "type": "int24",
                            "internalType": "int24"
                        },
                        {
                            "name": "liquidityDelta",
                            "type": "int256",
                            "internalType": "int256"
                        },
                        {
                            "name": "salt",
                            "type": "bytes32",
                            "internalType": "bytes32"
                        }
                    ]
                },
                {
                    "name": "hookData",
                    "type": "bytes",
                    "internalType": "bytes"
                }
            ],
            "outputs": [
                {
                    "name": "callerDelta",
                    "type": "int256",
                    "internalType": "BalanceDelta"
                },
                {
                    "name": "feesAccrued",
                    "type": "int256",
                    "internalType": "BalanceDelta"
                }
            ],
            "stateMutability": "nonpayable"
        },
        {
            "type": "function",
            "name": "owner",
            "inputs": [],
            "outputs": [
                {
                    "name": "",
                    "type": "address",
                    "internalType": "address"
                }
            ],
            "stateMutability": "view"
        },
        {
            "type": "function",
            "name": "protocolFeeController",
            "inputs": [],
            "outputs": [
                {
                    "name": "",
                    "type": "address",
                    "internalType": "address"
                }
            ],
            "stateMutability": "view"
        },
        {
            "type": "function",
            "name": "protocolFeesAccrued",
            "inputs": [
                {
                    "name": "currency",
                    "type": "address",
                    "internalType": "Currency"
                }
            ],
            "outputs": [
                {
                    "name": "amount",
                    "type": "uint256",
                    "internalType": "uint256"
                }
            ],
            "stateMutability": "view"
        },
        {
            "type": "function",
            "name": "setOperator",
            "inputs": [
                {
                    "name": "operator",
                    "type": "address",
                    "internalType": "address"
                },
                {
                    "name": "approved",
                    "type": "bool",
                    "internalType": "bool"
                }
            ],
            "outputs": [
                {
                    "name": "",
                    "type": "bool",
                    "internalType": "bool"
                }
            ],
            "stateMutability": "nonpayable"
        },
        {
            "type": "function",
            "name": "setProtocolFee",
            "inputs": [
                {
                    "name": "key",
                    "type": "tuple",
                    "internalType": "struct PoolKey",
                    "components": [
                        {
                            "name": "currency0",
                            "type": "address",
                            "internalType": "Currency"
                        },
                        {
                            "name": "currency1",
                            "type": "address",
                            "internalType": "Currency"
                        },
                        {
                            "name": "fee",
                            "type": "uint24",
                            "internalType": "uint24"
                        },
                        {
                            "name": "tickSpacing",
                            "type": "int24",
                            "internalType": "int24"
                        },
                        {
                            "name": "hooks",
                            "type": "address",
                            "internalType": "contract IHooks"
                        }
                    ]
                },
                {
                    "name": "newProtocolFee",
                    "type": "uint24",
                    "internalType": "uint24"
                }
            ],
            "outputs": [],
            "stateMutability": "nonpayable"
        },
        {
            "type": "function",
            "name": "setProtocolFeeController",
            "inputs": [
                {
                    "name": "controller",
                    "type": "address",
                    "internalType": "address"
                }
            ],
            "outputs": [],
            "stateMutability": "nonpayable"
        },
        {
            "type": "function",
            "name": "settle",
            "inputs": [],
            "outputs": [
                {
                    "name": "",
                    "type": "uint256",
                    "internalType": "uint256"
                }
            ],
            "stateMutability": "payable"
        },
        {
            "type": "function",
            "name": "settleFor",
            "inputs": [
                {
                    "name": "recipient",
                    "type": "address",
                    "internalType": "address"
                }
            ],
            "outputs": [
                {
                    "name": "",
                    "type": "uint256",
                    "internalType": "uint256"
                }
            ],
            "stateMutability": "payable"
        },
        {
            "type": "function",
            "name": "supportsInterface",
            "inputs": [
                {
                    "name": "interfaceId",
                    "type": "bytes4",
                    "internalType": "bytes4"
                }
            ],
            "outputs": [
                {
                    "name": "",
                    "type": "bool",
                    "internalType": "bool"
                }
            ],
            "stateMutability": "view"
        },
        {
            "type": "function",
            "name": "swap",
            "inputs": [
                {
                    "name": "key",
                    "type": "tuple",
                    "internalType": "struct PoolKey",
                    "components": [
                        {
                            "name": "currency0",
                            "type": "address",
                            "internalType": "Currency"
                        },
                        {
                            "name": "currency1",
                            "type": "address",
                            "internalType": "Currency"
                        },
                        {
                            "name": "fee",
                            "type": "uint24",
                            "internalType": "uint24"
                        },
                        {
                            "name": "tickSpacing",
                            "type": "int24",
                            "internalType": "int24"
                        },
                        {
                            "name": "hooks",
                            "type": "address",
                            "internalType": "contract IHooks"
                        }
                    ]
                },
                {
                    "name": "params",
                    "type": "tuple",
                    "internalType": "struct SwapParams",
                    "components": [
                        {
                            "name": "zeroForOne",
                            "type": "bool",
                            "internalType": "bool"
                        },
                        {
                            "name": "amountSpecified",
                            "type": "int256",
                            "internalType": "int256"
                        },
                        {
                            "name": "sqrtPriceLimitX96",
                            "type": "uint160",
                            "internalType": "uint160"
                        }
                    ]
                },
                {
                    "name": "hookData",
                    "type": "bytes",
                    "internalType": "bytes"
                }
            ],
            "outputs": [
                {
                    "name": "swapDelta",
                    "type": "int256",
                    "internalType": "BalanceDelta"
                }
            ],
            "stateMutability": "nonpayable"
        },
        {
            "type": "function",
            "name": "sync",
            "inputs": [
                {
                    "name": "currency",
                    "type": "address",
                    "internalType": "Currency"
                }
            ],
            "outputs": [],
            "stateMutability": "nonpayable"
        },
        {
            "type": "function",
            "name": "take",
            "inputs": [
                {
                    "name": "currency",
                    "type": "address",
                    "internalType": "Currency"
                },
                {
                    "name": "to",
                    "type": "address",
                    "internalType": "address"
                },
                {
                    "name": "amount",
                    "type": "uint256",
                    "internalType": "uint256"
                }
            ],
            "outputs": [],
            "stateMutability": "nonpayable"
        },
        {
            "type": "function",
            "name": "transfer",
            "inputs": [
                {
                    "name": "receiver",
                    "type": "address",
                    "internalType": "address"
                },
                {
                    "name": "id",
                    "type": "uint256",
                    "internalType": "uint256"
                },
                {
                    "name": "amount",
                    "type": "uint256",
                    "internalType": "uint256"
                }
            ],
            "outputs": [
                {
                    "name": "",
                    "type": "bool",
                    "internalType": "bool"
                }
            ],
            "stateMutability": "nonpayable"
        },
        {
            "type": "function",
            "name": "transferFrom",
            "inputs": [
                {
                    "name": "sender",
                    "type": "address",
                    "internalType": "address"
                },
                {
                    "name": "receiver",
                    "type": "address",
                    "internalType": "address"
                },
                {
                    "name": "id",
                    "type": "uint256",
                    "internalType": "uint256"
                },
                {
                    "name": "amount",
                    "type": "uint256",
                    "internalType": "uint256"
                }
            ],
            "outputs": [
                {
                    "name": "",
                    "type": "bool",
                    "internalType": "bool"
                }
            ],
            "stateMutability": "nonpayable"
        },
        {
            "type": "function",
            "name": "transferOwnership",
            "inputs": [
                {
                    "name": "newOwner",
                    "type": "address",
                    "internalType": "address"
                }
            ],
            "outputs": [],
            "stateMutability": "nonpayable"
        },
        {
            "type": "function",
            "name": "unlock",
            "inputs": [
                {
                    "name": "data",
                    "type": "bytes",
                    "internalType": "bytes"
                }
            ],
            "outputs": [
                {
                    "name": "result",
                    "type": "bytes",
                    "internalType": "bytes"
                }
            ],
            "stateMutability": "nonpayable"
        },
        {
            "type": "function",
            "name": "updateDynamicLPFee",
            "inputs": [
                {
                    "name": "key",
                    "type": "tuple",
                    "internalType": "struct PoolKey",
                    "components": [
                        {
                            "name": "currency0",
                            "type": "address",
                            "internalType": "Currency"
                        },
                        {
                            "name": "currency1",
                            "type": "address",
                            "internalType": "Currency"
                        },
                        {
                            "name": "fee",
                            "type": "uint24",
                            "internalType": "uint24"
                        },
                        {
                            "name": "tickSpacing",
                            "type": "int24",
                            "internalType": "int24"
                        },
                        {
                            "name": "hooks",
                            "type": "address",
                            "internalType": "contract IHooks"
                        }
                    ]
                },
                {
                    "name": "newDynamicLPFee",
                    "type": "uint24",
                    "internalType": "uint24"
                }
            ],
            "outputs": [],
            "stateMutability": "nonpayable"
        },
        {
            "type": "event",
            "name": "Approval",
            "inputs": [
                {
                    "name": "owner",
                    "type": "address",
                    "indexed": true,
                    "internalType": "address"
                },
                {
                    "name": "spender",
                    "type": "address",
                    "indexed": true,
                    "internalType": "address"
                },
                {
                    "name": "id",
                    "type": "uint256",
                    "indexed": true,
                    "internalType": "uint256"
                },
                {
                    "name": "amount",
                    "type": "uint256",
                    "indexed": false,
                    "internalType": "uint256"
                }
            ],
            "anonymous": false
        },
        {
            "type": "event",
            "name": "Donate",
            "inputs": [
                {
                    "name": "id",
                    "type": "bytes32",
                    "indexed": true,
                    "internalType": "PoolId"
                },
                {
                    "name": "sender",
                    "type": "address",
                    "indexed": true,
                    "internalType": "address"
                },
                {
                    "name": "amount0",
                    "type": "uint256",
                    "indexed": false,
                    "internalType": "uint256"
                },
                {
                    "name": "amount1",
                    "type": "uint256",
                    "indexed": false,
                    "internalType": "uint256"
                }
            ],
            "anonymous": false
        },
        {
            "type": "event",
            "name": "Initialize",
            "inputs": [
                {
                    "name": "id",
                    "type": "bytes32",
                    "indexed": true,
                    "internalType": "PoolId"
                },
                {
                    "name": "currency0",
                    "type": "address",
                    "indexed": true,
                    "internalType": "Currency"
                },
                {
                    "name": "currency1",
                    "type": "address",
                    "indexed": true,
                    "internalType": "Currency"
                },
                {
                    "name": "fee",
                    "type": "uint24",
                    "indexed": false,
                    "internalType": "uint24"
                },
                {
                    "name": "tickSpacing",
                    "type": "int24",
                    "indexed": false,
                    "internalType": "int24"
                },
                {
                    "name": "hooks",
                    "type": "address",
                    "indexed": false,
                    "internalType": "contract IHooks"
                },
                {
                    "name": "sqrtPriceX96",
                    "type": "uint160",
                    "indexed": false,
                    "internalType": "uint160"
                },
                {
                    "name": "tick",
                    "type": "int24",
                    "indexed": false,
                    "internalType": "int24"
                }
            ],
            "anonymous": false
        },
        {
            "type": "event",
            "name": "ModifyLiquidity",
            "inputs": [
                {
                    "name": "id",
                    "type": "bytes32",
                    "indexed": true,
                    "internalType": "PoolId"
                },
                {
                    "name": "sender",
                    "type": "address",
                    "indexed": true,
                    "internalType": "address"
                },
                {
                    "name": "tickLower",
                    "type": "int24",
                    "indexed": false,
                    "internalType": "int24"
                },
                {
                    "name": "tickUpper",
                    "type": "int24",
                    "indexed": false,
                    "internalType": "int24"
                },
                {
                    "name": "liquidityDelta",
                    "type": "int256",
                    "indexed": false,
                    "internalType": "int256"
                },
                {
                    "name": "salt",
                    "type": "bytes32",
                    "indexed": false,
                    "internalType": "bytes32"
                }
            ],
            "anonymous": false
        },
        {
            "type": "event",
            "name": "OperatorSet",
            "inputs": [
                {
                    "name": "owner",
                    "type": "address",
                    "indexed": true,
                    "internalType": "address"
                },
                {
                    "name": "operator",
                    "type": "address",
                    "indexed": true,
                    "internalType": "address"
                },
                {
                    "name": "approved",
                    "type": "bool",
                    "indexed": false,
                    "internalType": "bool"
                }
            ],
            "anonymous": false
        },
        {
            "type": "event",
            "name": "OwnershipTransferred",
            "inputs": [
                {
                    "name": "user",
                    "type": "address",
                    "indexed": true,
                    "internalType": "address"
                },
                {
                    "name": "newOwner",
                    "type": "address",
                    "indexed": true,
                    "internalType": "address"
                }
            ],
            "anonymous": false
        },
        {
            "type": "event",
            "name": "ProtocolFeeControllerUpdated",
            "inputs": [
                {
                    "name": "protocolFeeController",
                    "type": "address",
                    "indexed": true,
                    "internalType": "address"
                }
            ],
            "anonymous": false
        },
        {
            "type": "event",
            "name": "ProtocolFeeUpdated",
            "inputs": [
                {
                    "name": "id",
                    "type": "bytes32",
                    "indexed": true,
                    "internalType": "PoolId"
                },
                {
                    "name": "protocolFee",
                    "type": "uint24",
                    "indexed": false,
                    "internalType": "uint24"
                }
            ],
            "anonymous": false
        },
        {
            "type": "event",
            "name": "Swap",
            "inputs": [
                {
                    "name": "id",
                    "type": "bytes32",
                    "indexed": true,
                    "internalType": "PoolId"
                },
                {
                    "name": "sender",
                    "type": "address",
                    "indexed": true,
                    "internalType": "address"
                },
                {
                    "name": "amount0",
                    "type": "int128",
                    "indexed": false,
                    "internalType": "int128"
                },
                {
                    "name": "amount1",
                    "type": "int128",
                    "indexed": false,
                    "internalType": "int128"
                },
                {
                    "name": "sqrtPriceX96",
                    "type": "uint160",
                    "indexed": false,
                    "internalType": "uint160"
                },
                {
                    "name": "liquidity",
                    "type": "uint128",
                    "indexed": false,
                    "internalType": "uint128"
                },
                {
                    "name": "tick",
                    "type": "int24",
                    "indexed": false,
                    "internalType": "int24"
                },
                {
                    "name": "fee",
                    "type": "uint24",
                    "indexed": false,
                    "internalType": "uint24"
                }
            ],
            "anonymous": false
        },
        {
            "type": "event",
            "name": "Transfer",
            "inputs": [
                {
                    "name": "caller",
                    "type": "address",
                    "indexed": false,
                    "internalType": "address"
                },
                {
                    "name": "from",
                    "type": "address",
                    "indexed": true,
                    "internalType": "address"
                },
                {
                    "name": "to",
                    "type": "address",
                    "indexed": true,
                    "internalType": "address"
                },
                {
                    "name": "id",
                    "type": "uint256",
                    "indexed": true,
                    "internalType": "uint256"
                },
                {
                    "name": "amount",
                    "type": "uint256",
                    "indexed": false,
                    "internalType": "uint256"
                }
            ],
            "anonymous": false
        },
        {
            "type": "error",
            "name": "AlreadyUnlocked",
            "inputs": []
        },
        {
            "type": "error",
            "name": "CurrenciesOutOfOrderOrEqual",
            "inputs": [
                {
                    "name": "currency0",
                    "type": "address",
                    "internalType": "address"
                },
                {
                    "name": "currency1",
                    "type": "address",
                    "internalType": "address"
                }
            ]
        },
        {
            "type": "error",
            "name": "CurrencyNotSettled",
            "inputs": []
        },
        {
            "type": "error",
            "name": "DelegateCallNotAllowed",
            "inputs": []
        },
        {
            "type": "error",
            "name": "InvalidCaller",
            "inputs": []
        },
        {
            "type": "error",
            "name": "ManagerLocked",
            "inputs": []
        },
        {
            "type": "error",
            "name": "MustClearExactPositiveDelta",
            "inputs": []
        },
        {
            "type": "error",
            "name": "NonzeroNativeValue",
            "inputs": []
        },
        {
            "type": "error",
            "name": "PoolNotInitialized",
            "inputs": []
        },
        {
            "type": "error",
            "name": "ProtocolFeeCurrencySynced",
            "inputs": []
        },
        {
            "type": "error",
            "name": "ProtocolFeeTooLarge",
            "inputs": [
                {
                    "name": "fee",
                    "type": "uint24",
                    "internalType": "uint24"
                }
            ]
        },
        {
            "type": "error",
            "name": "SwapAmountCannotBeZero",
            "inputs": []
        },
        {
            "type": "error",
            "name": "TickSpacingTooLarge",
            "inputs": [
                {
                    "name": "tickSpacing",
                    "type": "int24",
                    "internalType": "int24"
                }
            ]
        },
        {
            "type": "error",
            "name": "TickSpacingTooSmall",
            "inputs": [
                {
                    "name": "tickSpacing",
                    "type": "int24",
                    "internalType": "int24"
                }
            ]
        },
        {
            "type": "error",
            "name": "UnauthorizedDynamicLPFeeUpdate",
            "inputs": []
        }
    ],
    "bytecode": {
        "object": "0x60a0604052348015600e575f80fd5b50604051615f94380380615f94833981016040819052602b91607f565b5f80546001600160a01b0319166001600160a01b038316908117825560405183928392917f8be0079c531659141344cd1fd0a4f28419497f9722a3daafe3b4186f6b6457e0908290a35050306080525060aa565b5f60208284031215608e575f80fd5b81516001600160a01b038116811460a3575f80fd5b9392505050565b608051615ed26100c25f395f611d5c0152615ed25ff3fe6080604052600436106101f4575f3560e01c80635a6bcfda11610117578063a5841194116100ac578063f135baaa1161007c578063f3cd914c11610062578063f3cd914c1461064f578063f5298aca1461066e578063fe99049a1461068d575f80fd5b8063f135baaa14610611578063f2fde38b14610630575f80fd5b8063a58411941461057b578063b6363cf21461059a578063dbd035ff146105d3578063f02de3b2146105f2575f80fd5b80638161b874116100e75780638161b874146104dc5780638da5cb5b146104fb57806397e8cd4e146105315780639bf6645f1461055c575f80fd5b80635a6bcfda146104385780636276cbbe1461046c5780637e87ce7d1461049e57806380f0b44c146104bd575f80fd5b80632d7713891161018d57806348c894911161015d57806348c894911461039257806352759651146103be578063558a7297146103dd578063598af9e7146103fc575f80fd5b80632d7713891461031557806335fd631a146103345780633dd45adb14610360578063426a849314610373575f80fd5b806311da60b4116101c857806311da60b4146102b0578063156e29f6146102b85780631e2eaeaf146102d7578063234266d7146102f6575f80fd5b8062fdd58e146101f857806301ffc9a714610241578063095bcdb6146102705780630b0d9c091461028f575b5f80fd5b348015610203575f80fd5b5061022e6102123660046150af565b600460209081525f928352604080842090915290825290205481565b6040519081526020015b60405180910390f35b34801561024c575f80fd5b5061026061025b3660046150d9565b6106ac565b6040519015158152602001610238565b34801561027b575f80fd5b5061026061028a366004615118565b610744565b34801561029a575f80fd5b506102ae6102a936600461514a565b6107fe565b005b61022e61087b565b3480156102c3575f80fd5b506102ae6102d2366004615118565b6108d9565b3480156102e2575f80fd5b5061022e6102f1366004615188565b610950565b348015610301575f80fd5b5061022e610310366004615324565b61095a565b348015610320575f80fd5b506102ae61032f366004615389565b610a64565b34801561033f575f80fd5b5061035361034e3660046153a4565b610b3d565b60405161023891906153c4565b61022e61036e366004615389565b610b7a565b34801561037e575f80fd5b5061026061038d366004615118565b610bd8565b34801561039d575f80fd5b506103b16103ac366004615406565b610c3c565b6040516102389190615445565b3480156103c9575f80fd5b506102ae6103d836600461547a565b610d70565b3480156103e8575f80fd5b506102606103f73660046154bb565b610df8565b348015610407575f80fd5b5061022e61041636600461514a565b600560209081525f938452604080852082529284528284209052825290205481565b348015610443575f80fd5b506104576104523660046154e5565b610e85565b60408051928352602083019190915201610238565b348015610477575f80fd5b5061048b6104863660046155a6565b611050565b60405160029190910b8152602001610238565b3480156104a9575f80fd5b506102ae6104b836600461547a565b61128c565b3480156104c8575f80fd5b506102ae6104d73660046150af565b611370565b3480156104e7575f80fd5b5061022e6104f636600461514a565b611422565b348015610506575f80fd5b505f54610519906001600160a01b031681565b6040516001600160a01b039091168152602001610238565b34801561053c575f80fd5b5061022e61054b366004615389565b60016020525f908152604090205481565b348015610567575f80fd5b506103536105763660046155dc565b61153c565b348015610586575f80fd5b506102ae610595366004615389565b611575565b3480156105a5575f80fd5b506102606105b436600461564d565b600360209081525f928352604080842090915290825290205460ff1681565b3480156105de575f80fd5b506103536105ed3660046155dc565b6115b1565b3480156105fd575f80fd5b50600254610519906001600160a01b031681565b34801561061c575f80fd5b5061022e61062b366004615188565b6115e8565b34801561063b575f80fd5b506102ae61064a366004615389565b6115f2565b34801561065a575f80fd5b5061022e610669366004615679565b6116c7565b348015610679575f80fd5b506102ae610688366004615118565b611852565b348015610698575f80fd5b506102606106a7366004615737565b6118c9565b5f7f01ffc9a7000000000000000000000000000000000000000000000000000000007fffffffff000000000000000000000000000000000000000000000000000000008316148061073e57507f0f632fb3000000000000000000000000000000000000000000000000000000007fffffffff000000000000000000000000000000000000000000000000000000008316145b92915050565b335f90815260046020908152604080832085845290915281208054839190839061076f9084906157a7565b90915550506001600160a01b0384165f908152600460209081526040808320868452909152812080548492906107a69084906157ba565b909155505060408051338082526020820185905285926001600160a01b038816927f1b3d7edb2e9c0b0e7c525b20aaaef0f5940d2ed71663c7d39266ecafac72885991015b60405180910390a45060015b9392505050565b7fc090fc4683624cfc3884e9d8de5eca132f2d0ec062aff75d43c0465d5ceeab235c61084d5761084d7f54e3ca0d00000000000000000000000000000000000000000000000000000000611a5a565b6108628361085a83611a62565b5f0333611aa7565b6108766001600160a01b0384168383611afa565b505050565b5f7fc090fc4683624cfc3884e9d8de5eca132f2d0ec062aff75d43c0465d5ceeab235c6108cb576108cb7f54e3ca0d00000000000000000000000000000000000000000000000000000000611a5a565b6108d433611bfd565b905090565b7fc090fc4683624cfc3884e9d8de5eca132f2d0ec062aff75d43c0465d5ceeab235c610928576109287f54e3ca0d00000000000000000000000000000000000000000000000000000000611a5a565b816109368161085a84611a62565b61094a846001600160a01b03831684611ccc565b50505050565b5f81545f5260205ff35b5f7fc090fc4683624cfc3884e9d8de5eca132f2d0ec062aff75d43c0465d5ceeab235c6109aa576109aa7f54e3ca0d00000000000000000000000000000000000000000000000000000000611a5a565b6109b2611d51565b60a086205f8181526006602052604090206109cc81611dac565b60808801516109e8906001600160a01b03168989898989611de6565b6109f3818888611e91565b9250610a00888433611f8b565b6040805188815260208101889052339184917f29ef05caaff9404b7cb6d1c0e9bbae9eaa7ab2541feba1a9c4248594c08156cb910160405180910390a36080880151610a59906001600160a01b03168989898989611fb3565b505095945050505050565b5f546001600160a01b03163314610adc576040517f08c379a000000000000000000000000000000000000000000000000000000000815260206004820152600c60248201527f554e415554484f52495a4544000000000000000000000000000000000000000060448201526064015b60405180910390fd5b600280547fffffffffffffffffffffffff0000000000000000000000000000000000000000166001600160a01b0383169081179091556040517fb4bd8ef53df690b9943d3318996006dbb82a25f54719d8c8035b516a2a5b8acc905f90a250565b6060604051808360051b6020835284602084015260408301925080830190505b85548352602083019250600186019550808310610b5d5781810382f35b5f7fc090fc4683624cfc3884e9d8de5eca132f2d0ec062aff75d43c0465d5ceeab235c610bca57610bca7f54e3ca0d00000000000000000000000000000000000000000000000000000000611a5a565b61073e82611bfd565b919050565b335f8181526005602090815260408083206001600160a01b03881680855290835281842087855290925280832085905551919285927fb3fd5071835887567a0671151121894ddccc2842f1d10bedad13e0d17cace9a7906107eb9087815260200190565b60607fc090fc4683624cfc3884e9d8de5eca132f2d0ec062aff75d43c0465d5ceeab235c15610c8e57610c8e7f5090d6c600000000000000000000000000000000000000000000000000000000611a5a565b610c96612053565b6040517f91dd734600000000000000000000000000000000000000000000000000000000815233906391dd734690610cd490869086906004016157f6565b5f604051808303815f875af1158015610cef573d5f803e3d5ffd5b505050506040513d5f823e601f3d908101601f19168201604052610d169190810190615809565b90507f7d4b3164c6e45b97e7d87b7125a44c5828d005af88f9d751cfd78729c5d99a0b5c15610d6857610d687f5212cba100000000000000000000000000000000000000000000000000000000611a5a565b61073e612079565b604082015162ffffff1662800000141580610da1575081608001516001600160a01b0316336001600160a01b031614155b15610dcf57610dcf7f30d2164100000000000000000000000000000000000000000000000000000000611a5a565b610ddd8162ffffff1661209e565b60a082205f81815260066020526040902061087690836120dd565b335f8181526003602090815260408083206001600160a01b03871680855290835281842080547fffffffffffffffffffffffffffffffffffffffffffffffffffffffffffffff001687151590811790915591519182529293917fceb576d9f15e4e200fdb5096d64d5dfd667e16def20c1eefd14256d8e3faa267910160405180910390a350600192915050565b5f807fc090fc4683624cfc3884e9d8de5eca132f2d0ec062aff75d43c0465d5ceeab235c610ed657610ed67f54e3ca0d00000000000000000000000000000000000000000000000000000000611a5a565b610ede611d51565b60a086205f818152600660205260409020610ef881611dac565b6080880151610f13906001600160a01b031689898989612136565b5f610f7a6040518060c00160405280336001600160a01b031681526020018a5f015160020b81526020018a6020015160020b8152602001610f578b60400151612294565b600f0b81526060808d015160020b60208301528b015160409091015283906122c9565b94509050610f888185612701565b94505050336001600160a01b0316817ff208f4912782fd25c7f114ca3723a2d5dd6f3bcc3ac8db5af63baa85f711d5ec885f015189602001518a604001518b60600151604051610ff99493929190600294850b81529290930b60208301526040820152606081019190915260800190565b60405180910390a360808701515f90611020906001600160a01b0316898987878b8b612734565b9094509050801561103a5761103a88828a60800151611f8b565b611045888533611f8b565b505094509492505050565b5f611059611d51565b6060830151617fff60029190910b131561109d57606083015161109d907fb70024f800000000000000000000000000000000000000000000000000000000906128b5565b600160020b836060015160020b12156110e05760608301516110e0907fe9e9058800000000000000000000000000000000000000000000000000000000906128b5565b825160208401516001600160a01b0390811691161061112b578251602084015161112b917f6e6c983000000000000000000000000000000000000000000000000000000000916128c4565b61114f836040015184608001516001600160a01b03166128ed90919063ffffffff16565b611183576080830151611183907fe65af6a000000000000000000000000000000000000000000000000000000000906129ae565b5f611196846040015162ffffff166129c3565b60808501519091506111b2906001600160a01b031685856129e8565b60a084205f8181526006602052604090206111ce908584612a83565b925084602001516001600160a01b0316855f01516001600160a01b0316827fdd466e674ea557f56295e2d0218a125ea4b4f0f6f3307b95f85e6110838d6438886040015189606001518a608001518a8a60405161126295949392919062ffffff959095168552600293840b60208601526001600160a01b03928316604086015291166060840152900b608082015260a00190565b60405180910390a46080850151611284906001600160a01b0316868686612b21565b505092915050565b6002546001600160a01b031633146112c7576112c77f48f5c3ed00000000000000000000000000000000000000000000000000000000611a5a565b6103e9610fff821610623e900062fff0008316101661130f5761130f7fa7abe2f70000000000000000000000000000000000000000000000000000000062ffffff83166129ae565b60a082206113318261132b835f90815260066020526040902090565b90612bbe565b60405162ffffff8316815281907fe9c42593e71f84403b84352cd168d693e2c9fcd1fdbcc3feb21d92b43e6696f99060200160405180910390a2505050565b7fc090fc4683624cfc3884e9d8de5eca132f2d0ec062aff75d43c0465d5ceeab235c6113bf576113bf7f54e3ca0d00000000000000000000000000000000000000000000000000000000611a5a565b335f9081526001600160a01b038316602052604081205c906113e083611a62565b90508181600f0b14611415576114157fbda73abf00000000000000000000000000000000000000000000000000000000611a5a565b61094a84825f0333611aa7565b6002545f906001600160a01b0316331461145f5761145f7f48f5c3ed00000000000000000000000000000000000000000000000000000000611a5a565b6001600160a01b038316151580156114a357506001600160a01b037f27e098c505d44ec3574004bca052aabf76bd35004c182099d8c575fb238593b95c8116908416145b156114d1576114d17fc79e594800000000000000000000000000000000000000000000000000000000611a5a565b81156114dd57816114f6565b6001600160a01b0383165f908152600160205260409020545b6001600160a01b0384165f908152600160205260408120805492935083929091906115229084906157a7565b909155506107f790506001600160a01b0384168583611afa565b606060405180602082528360208301526040820191508360051b8201855b80355c84526020938401930181841061155a575b5081810382f35b6001600160a01b03811661158e5761158b612c12565b50565b5f6115a1826001600160a01b0316612c37565b90506115ad8282612ccc565b5050565b606060405180602082528360208301526040820191508360051b8201855b8035548452602093840193018184101561156e576115cf565b5f815c5f5260205ff35b5f546001600160a01b03163314611665576040517f08c379a000000000000000000000000000000000000000000000000000000000815260206004820152600c60248201527f554e415554484f52495a454400000000000000000000000000000000000000006044820152606401610ad3565b5f80547fffffffffffffffffffffffff0000000000000000000000000000000000000000166001600160a01b0383169081178255604051909133917f8be0079c531659141344cd1fd0a4f28419497f9722a3daafe3b4186f6b6457e09190a350565b5f7fc090fc4683624cfc3884e9d8de5eca132f2d0ec062aff75d43c0465d5ceeab235c611717576117177f54e3ca0d00000000000000000000000000000000000000000000000000000000611a5a565b61171f611d51565b83602001515f03611753576117537fbe8b850700000000000000000000000000000000000000000000000000000000611a5a565b60a085205f81815260066020526040902061176d81611dac565b60808701515f908190819061178e906001600160a01b03168b8b8b8b612d1f565b8093508195508294505050506117fd84866040518060a001604052808681526020018e6060015160020b81526020018d5f0151151581526020018d604001516001600160a01b031681526020018562ffffff168152508c5f01516117f6578d60200151612e9b565b8d51612e9b565b60808b01519096505f925061182191506001600160a01b03168a8a888b8b88612f82565b9095509050801561183b5761183b89828b60800151611f8b565b611846898633611f8b565b50505050949350505050565b7fc090fc4683624cfc3884e9d8de5eca132f2d0ec062aff75d43c0465d5ceeab235c6118a1576118a17f54e3ca0d00000000000000000000000000000000000000000000000000000000611a5a565b816118b5816118af84611a62565b33611aa7565b61094a846001600160a01b038316846130e3565b5f336001600160a01b0386161480159061190657506001600160a01b0385165f90815260036020908152604080832033845290915290205460ff16155b15611995576001600160a01b0385165f90815260056020908152604080832033845282528083208684529091529020547fffffffffffffffffffffffffffffffffffffffffffffffffffffffffffffffff81146119935761196783826157a7565b6001600160a01b0387165f90815260056020908152604080832033845282528083208884529091529020555b505b6001600160a01b0385165f908152600460209081526040808320868452909152812080548492906119c79084906157a7565b90915550506001600160a01b0384165f908152600460209081526040808320868452909152812080548492906119fe9084906157ba565b9091555050604080513381526020810184905284916001600160a01b0380881692908916917f1b3d7edb2e9c0b0e7c525b20aaaef0f5940d2ed71663c7d39266ecafac728859910160405180910390a45060015b949350505050565b805f5260045ffd5b5f6f800000000000000000000000000000008210611aa357611aa37f93dafdf100000000000000000000000000000000000000000000000000000000611a5a565b5090565b81600f0b5f03611ab657505050565b5f80611acc6001600160a01b03861684866131c0565b91509150805f03611ae457611adf6131f9565b611af3565b815f03611af357611af3613247565b5050505050565b5f6001600160a01b038416611b48575f805f8085875af1905080611b4357611b43835f7ff4b3b1bc00000000000000000000000000000000000000000000000000000000613295565b61094a565b6040517fa9059cbb0000000000000000000000000000000000000000000000000000000081526001600160a01b038416600482015282602482015260205f6044835f895af13d15601f3d1160015f511416171691505f81525f60208201525f6040820152508061094a5761094a847fa9059cbb000000000000000000000000000000000000000000000000000000007ff27f64e400000000000000000000000000000000000000000000000000000000613295565b5f7f27e098c505d44ec3574004bca052aabf76bd35004c182099d8c575fb238593b95c6001600160a01b038116611c3657349150611cb3565b3415611c6557611c657fb0ec849e00000000000000000000000000000000000000000000000000000000611a5a565b7f1e0745a7db1623981f0b2a5d4232364c00787266eb75ad546f190e6cebe9bd955c5f611c9a6001600160a01b038416612c37565b9050611ca682826157a7565b9350611cb0612c12565b50505b611cc681611cc084611a62565b85611aa7565b50919050565b6001600160a01b0383165f90815260046020908152604080832085845290915281208054839290611cfe9084906157ba565b9091555050604080513381526020810183905283916001600160a01b038616915f917f1b3d7edb2e9c0b0e7c525b20aaaef0f5940d2ed71663c7d39266ecafac72885991015b60405180910390a4505050565b306001600160a01b037f00000000000000000000000000000000000000000000000000000000000000001614611daa57611daa7f0d89438e00000000000000000000000000000000000000000000000000000000611a5a565b565b80546001600160a01b03165f0361158b5761158b7f486aa30700000000000000000000000000000000000000000000000000000000611a5a565b85336001600160a01b03821614611e88576020871615611e8857611e86338787878787604051602401611e1e9695949392919061589d565b60408051601f198184030181529190526020810180517bffffffffffffffffffffffffffffffffffffffffffffffffffffffff167fb6a8b0fa000000000000000000000000000000000000000000000000000000001790526001600160a01b03891690613356565b505b50505050505050565b60038301545f906fffffffffffffffffffffffffffffffff16808203611eda57611eda7fa74f97ab00000000000000000000000000000000000000000000000000000000611a5a565b611f11611ee685611a62565b5f03611ef185611a62565b5f0360809190911b6fffffffffffffffffffffffffffffffff9091161790565b91508315611f4b576001850180546fffffffffffffffffffffffffffffffff83167001000000000000000000000000000000008702040190555b8215611f83576002850180546fffffffffffffffffffffffffffffffff83167001000000000000000000000000000000008602040190555b509392505050565b8251611fa190611f9b8460801d90565b83611aa7565b6108768360200151611f9b84600f0b90565b85336001600160a01b03821614611e88576010871615611e8857611e86338787878787604051602401611feb9695949392919061589d565b60408051601f198184030181529190526020810180517bffffffffffffffffffffffffffffffffffffffffffffffffffffffff167fe1b4af69000000000000000000000000000000000000000000000000000000001790526001600160a01b03891690613356565b60017fc090fc4683624cfc3884e9d8de5eca132f2d0ec062aff75d43c0465d5ceeab235d565b5f7fc090fc4683624cfc3884e9d8de5eca132f2d0ec062aff75d43c0465d5ceeab235d565b620f424062ffffff8216111561158b5761158b7f140021130000000000000000000000000000000000000000000000000000000062ffffff83166129ae565b6120e682611dac565b81547fffffff000000ffffffffffffffffffffffffffffffffffffffffffffffffffff167cffffff000000000000000000000000000000000000000000000000000060d083901b16175b90915550565b84336001600160a01b0382161461228c575f846040015113801561215d5750610800861615155b156121ec576121e6338686868660405160240161217e959493929190615935565b60408051601f198184030181529190526020810180517bffffffffffffffffffffffffffffffffffffffffffffffffffffffff167f259982e5000000000000000000000000000000000000000000000000000000001790526001600160a01b03881690613356565b5061228c565b5f8460400151131580156122035750610200861615155b1561228c57611e883386868686604051602401612224959493929190615935565b60408051601f198184030181529190526020810180517bffffffffffffffffffffffffffffffffffffffffffffffffffffffff167f21d0ee70000000000000000000000000000000000000000000000000000000001790526001600160a01b03881690613356565b505050505050565b80600f81900b8114610bd357610bd37f93dafdf100000000000000000000000000000000000000000000000000000000611a5a565b6060810151602082015160408301515f92839290916122e88282613452565b604080516080810182525f80825260208201819052918101829052606081019190915283600f0b5f146124b8576123218884865f613519565b6fffffffffffffffffffffffffffffffff166020830152151581526123498883866001613519565b6fffffffffffffffffffffffffffffffff166060830152151560408201525f600f85900b1261247d5760808701515f9060020b7ffffffffffffffffffffffffffffffffffffffffffffffffffffffffffff2761881810783139082900503620d89e891909105036001016fffffffffffffffffffffffffffffffff049050806fffffffffffffffffffffffffffffffff1682602001516fffffffffffffffffffffffffffffffff161115612421576124217fb8e3c38500000000000000000000000000000000000000000000000000000000856128b5565b806fffffffffffffffffffffffffffffffff1682606001516fffffffffffffffffffffffffffffffff16111561247b5761247b7fb8e3c38500000000000000000000000000000000000000000000000000000000846128b5565b505b8051156124995760808701516124999060058a01908590613602565b8060400151156124b85760808701516124b89060058a01908490613602565b5f806124c58a8686613654565b8a5160a08c015160408051602681019290925260068083018a9052600383018b9052928252603a600c8301205f838301819052602080850182905293819052908152928f01909152812092945090925080612522838a8787613708565b9150915061255761253283611a62565b61253b83611a62565b6fffffffffffffffffffffffffffffffff1660809190911b1790565b995050505050505f84600f0b12156125c05780511561259357600283810b5f90815260048a016020526040812081815560018101829055909101555b8060400151156125c057600282810b5f90815260048a016020526040812081815560018101829055909101555b5082600f0b5f146126f75786545f806125dc8360a01c60020b90565b6001600160a01b038416915091508460020b8260020b121561262b5761262461261e61261961260a88613839565b61261388613839565b8a613b36565b612294565b60801b90565b97506126f3565b8360020b8260020b12156126ce5761266261264c6126198361261388613839565b61253b61261961265b89613839565b858b613b6e565b60038b0154909850612686906fffffffffffffffffffffffffffffffff1687613b9a565b60038b0180547fffffffffffffffffffffffffffffffff00000000000000000000000000000000166fffffffffffffffffffffffffffffffff929092169190911790556126f3565b6126f05f61253b6126196126e189613839565b6126ea89613839565b8b613b6e565b97505b5050505b5050509250929050565b5f608082811d9084901d01600f83810b9085900b0161272b61272283612294565b61253b83612294565b95945050505050565b5f806001600160a01b038916330361275057508490505f6128a9565b8591505f8760400151131561280d57610400891615612808576127f93389898989898960405160240161278997969594939291906159e3565b60408051601f198184030181529190526020810180517bffffffffffffffffffffffffffffffffffffffffffffffffffffffff167f9f063efc0000000000000000000000000000000000000000000000000000000017905260028b1615155b6001600160a01b038c169190613bca565b90506128058282613c24565b91505b6128a9565b6101008916156128a95761289a3389898989898960405160240161283797969594939291906159e3565b60408051601f198184030181529190526020810180517bffffffffffffffffffffffffffffffffffffffffffffffffffffffff167f6c2bbe7e0000000000000000000000000000000000000000000000000000000017905260018b1615156127e8565b90506128a68282613c24565b91505b97509795505050505050565b815f528060020b60045260245ffd5b6040518381526001600160a01b03831660048201526001600160a01b0382166024820152604481fd5b5f6080831615801561290157506008831615155b1561290d57505f61073e565b6040831615801561292057506004831615155b1561292c57505f61073e565b610400831615801561294057506002831615155b1561294c57505f61073e565b610100831615801561296057506001831615155b1561296c57505f61073e565b6001600160a01b0383161561299d57613fff831615158061299857506280000062ffffff8316146107f7565b6107f7565b5062ffffff16628000001415919050565b815f526001600160a01b03811660045260245ffd5b5f6280000062ffffff8316036129da57505f919050565b611aa38262ffffff1661209e565b82336001600160a01b0382161461094a5761200084161561094a57611af3338484604051602401612a1b93929190615a9f565b60408051601f198184030181529190526020810180517bffffffffffffffffffffffffffffffffffffffffffffffffffffffff167fdc98354e000000000000000000000000000000000000000000000000000000001790526001600160a01b03861690613356565b82545f906001600160a01b031615612abe57612abe7f7983c05100000000000000000000000000000000000000000000000000000000611a5a565b612ac783613c45565b90507cffffff000000000000000000000000000000000000000000000000000060d083901b166001600160a01b03841660a083901b76ffffff00000000000000000000000000000000000000001617179093555090919050565b83336001600160a01b03821614611af357611000851615611af35761228c33858585604051602401612b569493929190615b21565b60408051601f198184030181529190526020810180517bffffffffffffffffffffffffffffffffffffffffffffffffffffffff167f6fe7e6eb000000000000000000000000000000000000000000000000000000001790526001600160a01b03871690613356565b612bc782611dac565b81547fffffffffffff000000ffffffffffffffffffffffffffffffffffffffffffffff1679ffffff000000000000000000000000000000000000000000000060b883901b1617612130565b5f7f27e098c505d44ec3574004bca052aabf76bd35004c182099d8c575fb238593b95d565b5f6001600160a01b038216612c4d575047919050565b6040517f70a082310000000000000000000000000000000000000000000000000000000081523060048201526001600160a01b038316906370a0823190602401602060405180830381865afa158015612ca8573d5f803e3d5ffd5b505050506040513d601f19601f8201168201806040525081019061073e9190615bae565b6001600160a01b0382167f27e098c505d44ec3574004bca052aabf76bd35004c182099d8c575fb238593b95d807f1e0745a7db1623981f0b2a5d4232364c00787266eb75ad546f190e6cebe9bd955d5050565b60208301515f806001600160a01b0388163303612d3e575f9150612e90565b6080881615612e90575f612dc289338a8a8a8a604051602401612d65959493929190615bc5565b60408051601f198184030181529190526020810180517bffffffffffffffffffffffffffffffffffffffffffffffffffffffff167f575e24b400000000000000000000000000000000000000000000000000000000179052613356565b90508051606014612df657612df67f1e048e1d00000000000000000000000000000000000000000000000000000000611a5a565b604088015162ffffff166280000003612e1157606081015191505b6008891615612e8e57604081015192505f612e2c8460801d90565b905080600f0b5f14612e8c575f8512612e49600f83900b87615c6c565b955080612e58575f8612612e5c565b5f86135b15612e8a57612e8a7ffa0b71d600000000000000000000000000000000000000000000000000000000611a5a565b505b505b505b955095509592505050565b5f80808080612eaa8988613f42565b93509350935093505f831115612ed8576001600160a01b0386165f9081526001602052604090208054840190555b33887f40e9cecb9f5f1f1c5b9c97dec2917b7ee92e57ba5563708daca94dd84ad7112f612f058760801d90565b612f0f88600f0b90565b85516040808801516020808a01518351600f97880b81529590960b908501526001600160a01b03909216908301526fffffffffffffffffffffffffffffffff16606082015260029190910b608082015262ffffff861660a082015260c00160405180910390a35091979650505050505050565b5f806001600160a01b0389163303612f9e57508490505f6128a9565b5f612fa98460801d90565b90505f612fb685600f0b90565b905060408b161561305e57613051612619338c8c8c8c8c604051602401612fe296959493929190615c8b565b60408051601f198184030181529190526020810180517bffffffffffffffffffffffffffffffffffffffffffffffffffffffff167fb47b2fb10000000000000000000000000000000000000000000000000000000017905260048e1615156001600160a01b038f169190613bca565b61305b9082615d39565b90505b5f81600f0b5f141580613074575082600f0b5f14155b156130d157895160208b01515f13901515146130a8576fffffffffffffffffffffffffffffffff8316608083901b176130c2565b6fffffffffffffffffffffffffffffffff8216608084901b175b90506130ce8982613c24565b98505b979b979a509698505050505050505050565b336001600160a01b038416811480159061312257506001600160a01b038085165f9081526003602090815260408083209385168352929052205460ff16155b156131b5576001600160a01b038085165f9081526005602090815260408083209385168352928152828220868352905220547fffffffffffffffffffffffffffffffffffffffffffffffffffffffffffffffff81146131b35761318583826157a7565b6001600160a01b038087165f9081526005602090815260408083209387168352928152828220888352905220555b505b61094a8484846146f5565b6001600160a01b038281165f90815290841660205260408120805c91906131eb600f85900b84615c6c565b915081815d50935093915050565b7f7d4b3164c6e45b97e7d87b7125a44c5828d005af88f9d751cfd78729c5d99a0b5c600181039050807f7d4b3164c6e45b97e7d87b7125a44c5828d005af88f9d751cfd78729c5d99a0b5d50565b7f7d4b3164c6e45b97e7d87b7125a44c5828d005af88f9d751cfd78729c5d99a0b5c600181019050807f7d4b3164c6e45b97e7d87b7125a44c5828d005af88f9d751cfd78729c5d99a0b5d50565b6040517f90bfb865000000000000000000000000000000000000000000000000000000008082526001600160a01b03851660048301527fffffffff0000000000000000000000000000000000000000000000000000000084166024830152608060448301526020601f3d018190040260a0810160648401523d608484015290913d5f60a483013e60048260a4018201527fffffffff0000000000000000000000000000000000000000000000000000000084168260c4018201528160e40181fd5b60605f805f8451602086015f885af190508061339f5761339f8461337985615d87565b7fa9e35b2f00000000000000000000000000000000000000000000000000000000613295565b6040519150601f19603f3d011682016040523d82523d5f602084013e60208251108061341d575060208301517fffffffff00000000000000000000000000000000000000000000000000000000166133f8836020015190565b7fffffffff000000000000000000000000000000000000000000000000000000001614155b1561344b5761344b7f1e048e1d00000000000000000000000000000000000000000000000000000000611a5a565b5092915050565b8060020b8260020b1261348a5761348a7fc4433ed5000000000000000000000000000000000000000000000000000000008383614771565b7ffffffffffffffffffffffffffffffffffffffffffffffffffffffffffff27618600283900b12156134e0576134e07fd5e2f7ab00000000000000000000000000000000000000000000000000000000836128b5565b620d89e8600282900b13156115ad576115ad7f1ad777f800000000000000000000000000000000000000000000000000000000826128b5565b600283900b5f908152600485016020526040812080548291906fffffffffffffffffffffffffffffffff8116907001000000000000000000000000000000009004600f0b6135678288613b9a565b6fffffffffffffffffffffffffffffffff808216159084168015919091141596509094505f036135ba57885460a01c60020b60020b8860020b136135ba576001808a0154908401556002808a0154908401555b5f866135cf576135ca8883615d39565b6135d9565b6135d98883615df3565b90508060801b6fffffffffffffffffffffffffffffffff86161784555050505094509492505050565b600291820b910b8082071561362f5760405163d4d8f3e681528260208201528160408201526044601c8201fd5b80820591508160081d5f528260205260405f20600160ff84161b815418815550505050565b600282810b5f81815260048601602052604080822085850b83529082208754929485949293919260a09290921c900b908112156136aa5781600101548360010154039450816002015483600201540393506136fd565b8560020b8160020b126136d65782600101548260010154039450826002015482600201540393506136fd565b81600101548360010154896001015403039450816002015483600201548960020154030393505b505050935093915050565b83545f9081906fffffffffffffffffffffffffffffffff16600f86900b820361377257806fffffffffffffffffffffffffffffffff165f0361376d5761376d7faefeb92400000000000000000000000000000000000000000000000000000000611a5a565b6137b9565b61377c8187613b9a565b87547fffffffffffffffffffffffffffffffff00000000000000000000000000000000166fffffffffffffffffffffffffffffffff919091161787555b6137ed87600101548603826fffffffffffffffffffffffffffffffff1670010000000000000000000000000000000061478e565b925061382387600201548503826fffffffffffffffffffffffffffffffff1670010000000000000000000000000000000061478e565b6001880195909555505060029094015591929050565b60020b5f60ff82901d80830118620d89e881111561387b5761387b7f8b86327a00000000000000000000000000000000000000000000000000000000846128b5565b7001fffcb933bd6fad37aa2d162d1a59400160018216027001000000000000000000000000000000001860028216156138c4576ffff97272373d413259a46990580e213a0260801c5b60048216156138e3576ffff2e50f5f656932ef12357cf3c7fdcc0260801c5b6008821615613902576fffe5caca7e10e4e61c3624eaa0941cd00260801c5b6010821615613921576fffcb9843d60f6159c9db58835c9266440260801c5b6020821615613940576fff973b41fa98c081472e6896dfb254c00260801c5b604082161561395f576fff2ea16466c96a3843ec78b326b528610260801c5b608082161561397e576ffe5dee046a99a2a811c461f1969c30530260801c5b61010082161561399e576ffcbe86c7900a88aedcffc83b479aa3a40260801c5b6102008216156139be576ff987a7253ac413176f2b074cf7815e540260801c5b6104008216156139de576ff3392b0822b70005940c7a398e4b70f30260801c5b6108008216156139fe576fe7159475a2c29b7443b29c7fa6e889d90260801c5b611000821615613a1e576fd097f3bdfd2022b8845ad8f792aa58250260801c5b612000821615613a3e576fa9f746462d870fdf8a65dc1f90e061e50260801c5b614000821615613a5e576f70d869a156d2a1b890bb3df62baf32f70260801c5b618000821615613a7e576f31be135f97d08fd981231505542fcfa60260801c5b62010000821615613a9f576f09aa508b5b7a84e1c677de54f3e99bc90260801c5b62020000821615613abf576e5d6af8dedb81196699c329225ee6040260801c5b62040000821615613ade576d2216e584f5fa1ea926041bedfe980260801c5b62080000821615613afb576b048a170391f7dc42444e8fa20260801c5b5f841315613b26577fffffffffffffffffffffffffffffffffffffffffffffffffffffffffffffffff045b63ffffffff0160201c9392505050565b5f8082600f0b12613b5d57613b56613b518585856001614849565b61491e565b5f03611a52565b611a52613b518585855f035f614849565b5f8082600f0b12613b8957613b56613b518585856001614950565b611a52613b518585855f035f614950565b6fffffffffffffffffffffffffffffffff8216600f82900b01608081901c1561073e576393dafdf15f526004601cfd5b5f80613bd68585613356565b905082613be6575f9150506107f7565b8051604014613c1857613c187f1e048e1d00000000000000000000000000000000000000000000000000000000611a5a565b60400151949350505050565b5f608082811d9084901d03600f83810b9085900b0361272b61272283612294565b5f73fffd8963efd1fc6a506488495d951d51639616827ffffffffffffffffffffffffffffffffffffffffffffffffffffffffefffd895d83016001600160a01b03161115613cb757613cb77f6148752400000000000000000000000000000000000000000000000000000000836129ae565b77ffffffffffffffffffffffffffffffffffffffff00000000602083901b16805f613ce1826149ae565b60ff16905060808110613cfc57607f810383901c9150613d06565b80607f0383901b91505b908002607f81811c60ff83811c9190911c800280831c81831c1c800280841c81841c1c800280851c81851c1c800280861c81861c1c800280871c81871c1c800280881c81881c1c800280891c81891c1c8002808a1c818a1c1c8002808b1c818b1c1c8002808c1c818c1c1c8002808d1c818d1c1c8002808e1c9c81901c9c909c1c80029c8d901c9e9d7fffffffffffffffffffffffffffffffffffffffffffffffffffffffffffffff808f0160401b60c09190911c678000000000000000161760c19b909b1c674000000000000000169a909a1760c29990991c672000000000000000169890981760c39790971c671000000000000000169690961760c49590951c670800000000000000169490941760c59390931c670400000000000000169290921760c69190911c670200000000000000161760c79190911c670100000000000000161760c89190911c6680000000000000161760c99190911c6640000000000000161760ca9190911c6620000000000000161760cb9190911c6610000000000000161760cc9190911c6608000000000000161760cd9190911c66040000000000001617693627a301d71055774c8581027ffffffffffffffffffffffffffffffffffd709b7e5480fba5a50fed5e62ffc5568101608090811d906fdb2df09e81959a81455e260799a0632f8301901d600281810b9083900b14613f3357886001600160a01b0316613f1882613839565b6001600160a01b03161115613f2d5781613f35565b80613f35565b815b9998505050505050505050565b604080516060810182525f8082526020820181905291810182905281908190855460408601515f81613f7c57610fff60c484901c16613f86565b610fff60b884901c165b88516001600160a01b038516865261ffff9190911691505f60a085901c60020b60020b602087015260038b01546fffffffffffffffffffffffffffffffff16604087015260808a01515f906240000016613fe95760d086901c62ffffff16613ffb565b613ffb8b6080015162ffffff16614a42565b9050831561402157620f4240610fff851662ffffff831681810292909204910103614023565b805b975050620f42408762ffffff16106140675789515f1215614067576140677f9620624600000000000000000000000000000000000000000000000000000000611a5a565b89515f0361407f575f809850985050505050506146ec565b831561412e5760608a01516001600160a01b038681169116106140d7576140d76001600160a01b0386165b60608c01517f7c9c6e8f0000000000000000000000000000000000000000000000000000000091906128c4565b6401000276a36001600160a01b03168a606001516001600160a01b0316116141295760608a0151614129907f9e4d7cc700000000000000000000000000000000000000000000000000000000906129ae565b6141b8565b60608a01516001600160a01b03868116911611614157576141576001600160a01b0386166140aa565b73fffd8963efd1fc6a506488495d951d5263988d266001600160a01b03168a606001516001600160a01b0316106141b85760608a01516141b8907f9e4d7cc700000000000000000000000000000000000000000000000000000000906129ae565b60408051610100810182525f80825260208201819052918101829052606081018290526080810182905260a0810182905260c0810182905260e081019190915284614207578b6002015461420d565b8b600101545b60e08201525b82158061423857508a606001516001600160a01b0316875f01516001600160a01b0316145b6145855786516001600160a01b03168152602080880151908c01516142629160058f019188614a51565b1515604083015260020b602082018190527ffffffffffffffffffffffffffffffffffffffffffffffffffffffffffff27618126142c0577ffffffffffffffffffffffffffffffffffffffffffffffffffffffffffff2761860208201525b620d89e860020b816020015160020b126142de57620d89e860208201525b6142eb8160200151613839565b6001600160a01b0390811660608381018290528951908e0151614328939192911680821891811160018a161891909102188960400151868c614b7c565b60c085015260a084015260808301526001600160a01b031687528a515f1215614384576143588160a0015161491e565b830392506143738160c001518260800151613b5191906157ba565b61437d9083615e41565b91506143b5565b6143978160c0015182608001510161491e565b830192506143a88160a0015161491e565b6143b29083615c6c565b91505b8315614404575f848962ffffff16146143ec57620f4240858360c0015184608001510102816143e6576143e6615e60565b046143f2565b8160c001515b60c08301805182900390529990990198505b60408701516fffffffffffffffffffffffffffffffff1615614463576144578160c0015170010000000000000000000000000000000089604001516fffffffffffffffffffffffffffffffff1691020490565b60e08201805190910190525b80606001516001600160a01b0316875f01516001600160a01b03160361455f5780604001511561453a575f80866144a3578d600101548360e001516144ae565b8260e001518e600201545b915091505f6145068f85602001518585600292830b5f908152600490940160205260409093206001810180549092039091559081018054909203909155547001000000000000000000000000000000009004600f0b90565b90508715614511575f035b61451f8a6040015182613b9a565b6fffffffffffffffffffffffffffffffff1660408b01525050505b84614549578060200151614552565b60018160200151035b60020b6020880152614213565b805187516001600160a01b0390811691161461458057865161455290613c45565b614213565b8651602088015161460d91906145dc90899060a01b76ffffff0000000000000000000000000000000000000000167fffffffffffffffffff000000ffffffffffffffffffffffffffffffffffffffff919091161790565b7fffffffffffffffffffffffff0000000000000000000000000000000000000000166001600160a01b039091161790565b8c55604087015160038d01546fffffffffffffffffffffffffffffffff90811691161461467c57604087015160038d0180547fffffffffffffffffffffffffffffffff00000000000000000000000000000000166fffffffffffffffffffffffffffffffff9092169190911790555b846146905760e081015160028d015561469b565b60e081015160018d01555b8a515f13851515146146c8576146c16146b383612294565b61253b858e5f015103612294565b99506146e5565b6146e26146d9848d5f015103612294565b61253b84612294565b99505b5050505050505b92959194509250565b6001600160a01b0383165f908152600460209081526040808320858452909152812080548392906147279084906157a7565b9091555050604080513381526020810183905283915f916001600160a01b038716917f1b3d7edb2e9c0b0e7c525b20aaaef0f5940d2ed71663c7d39266ecafac7288599101611d44565b6040518381528260020b60048201528160020b6024820152604481fd5b5f838302817fffffffffffffffffffffffffffffffffffffffffffffffffffffffffffffffff858709828110838203039150508084116147cc575f80fd5b805f036147de575082900490506107f7565b5f848688095f868103871696879004966002600389028118808a02820302808a02820302808a02820302808a02820302808a02820302808a02909103029181900381900460010186841190950394909402919094039290920491909117919091029150509392505050565b5f836001600160a01b0316856001600160a01b03161115614868579293925b6001600160a01b0385166148825762bfc9215f526004601cfd5b7bffffffffffffffffffffffffffffffff000000000000000000000000606084901b166001600160a01b0386860316836148e757866001600160a01b03166148d48383896001600160a01b031661478e565b816148e1576148e1615e60565b04614913565b6149136148fe8383896001600160a01b0316614cdf565b886001600160a01b0316808204910615150190565b979650505050505050565b805f811215610bd357610bd37f93dafdf100000000000000000000000000000000000000000000000000000000611a5a565b5f6001600160a01b038481169086160360ff81901d908101186c010000000000000000000000006fffffffffffffffffffffffffffffffff851661499581848461478e565b9350845f83858409111684019350505050949350505050565b5f8082116149ba575f80fd5b507f0706060506020500060203020504000106050205030304010505030400000000601f6f8421084210842108cc6318c6db6d54be6fffffffffffffffffffffffffffffffff841160071b84811c67ffffffffffffffff1060061b1784811c63ffffffff1060051b1784811c61ffff1060041b1784811c60ff1060031b1793841c1c161a1790565b62bfffff8116610bd38161209e565b5f80600284810b9086900b8181078313919005038315614aef57600281900b60081d600181900b5f908152602089905260409020547fffffffffffffffffffffffffffffffffffffffffffffffffffffffffffffffff60ff808516908190039190911c918216801515955090919085614ad157888360ff16860302614ae4565b88614adb826149ae565b840360ff168603025b965050505050614b72565b6001908101600281900b60081d80830b5f90815260208a905260409020547fffffffffffffffffffffffffffffffffffffffffffffffffffffffffffffffff60ff841694851b011990811680151595509293919285614b5857888360ff0360ff16860102614b6b565b8883614b6383614d0f565b0360ff168601025b9650505050505b5094509492505050565b5f80808062ffffff85166001600160a01b03808a16908b1610158288128015614c52575f614bb58a5f0385620f424003620f424061478e565b905082614bce57614bc98d8d8d6001614950565b614bdb565b614bdb8c8e8d6001614849565b9650868110614c0f578b9750620f42408414614c0657614c01878586620f424003614cdf565b614c08565b865b9450614c28565b809650614c1e8d8c8386614da9565b9750868a5f030394505b82614c3e57614c398d898d5f614849565b614c4a565b614c4a888e8d5f614950565b955050614cd0565b81614c6857614c638c8c8c5f614849565b614c74565b614c748b8d8c5f614950565b9450848910614c85578a9650614c97565b889450614c948c8b8785614e00565b96505b81614cae57614ca98c888c6001614950565b614cbb565b614cbb878d8c6001614849565b9550614ccd868485620f424003614cdf565b93505b50505095509550955095915050565b5f614ceb84848461478e565b90508180614cfb57614cfb615e60565b838509156107f757600101806107f7575f80fd5b5f808211614d1b575f80fd5b507e1f0d1e100c1d070f090b19131c1706010e11080a1a141802121b15031604055f8290039091166101e07f804040554300526644320000502061067405302602000010750620017611707760fc7fb6db6db6ddddddddd34d34d349249249210842108c6318c639ce739cffffffff840260f81c161b60f71c1690811c63d76453e004601f169190911a1790565b5f6fffffffffffffffffffffffffffffffff8416156001600160a01b038616151715614ddc57634f2461b85f526004601cfd5b81614df357614dee8585856001614e4c565b61272b565b61272b8585856001614f6d565b5f6fffffffffffffffffffffffffffffffff8416156001600160a01b038616151715614e3357634f2461b85f526004601cfd5b81614e4457614dee8585855f614f6d565b61272b8585855f5b5f8115614ed7575f6001600160a01b03841115614e9257614e8d846c01000000000000000000000000876fffffffffffffffffffffffffffffffff1661478e565b614eb2565b614eb26fffffffffffffffffffffffffffffffff8616606086901b615e8d565b9050614ecf614eca826001600160a01b0389166157ba565b615061565b915050611a52565b5f6001600160a01b03841115614f1657614f11846c01000000000000000000000000876fffffffffffffffffffffffffffffffff16614cdf565b614f3c565b614f3c606085901b6fffffffffffffffffffffffffffffffff8716808204910615150190565b9050806001600160a01b03871611614f5b57634323a5555f526004601cfd5b6001600160a01b038616039050611a52565b5f825f03614f7c575083611a52565b7bffffffffffffffffffffffffffffffff000000000000000000000000606085901b168215615020576001600160a01b03861684810290858281614fc257614fc2615e60565b0403614ff257818101828110614ff057614fe683896001600160a01b031683614cdf565b9350505050611a52565b505b50614ecf818561500b6001600160a01b038a1683615e8d565b61501591906157ba565b808204910615150190565b6001600160a01b0386168481029085820414818311166150475763f5c787f15f526004601cfd5b808203614fe6614eca846001600160a01b038b1684614cdf565b806001600160a01b0381168114610bd357610bd37f93dafdf100000000000000000000000000000000000000000000000000000000611a5a565b6001600160a01b038116811461158b575f80fd5b5f80604083850312156150c0575f80fd5b82356150cb8161509b565b946020939093013593505050565b5f602082840312156150e9575f80fd5b81357fffffffff00000000000000000000000000000000000000000000000000000000811681146107f7575f80fd5b5f805f6060848603121561512a575f80fd5b83356151358161509b565b95602085013595506040909401359392505050565b5f805f6060848603121561515c575f80fd5b83356151678161509b565b925060208401356151778161509b565b929592945050506040919091013590565b5f60208284031215615198575f80fd5b5035919050565b7f4e487b71000000000000000000000000000000000000000000000000000000005f52604160045260245ffd5b6040516080810167ffffffffffffffff811182821017156151ef576151ef61519f565b60405290565b604051601f8201601f1916810167ffffffffffffffff8111828210171561521e5761521e61519f565b604052919050565b803562ffffff81168114610bd3575f80fd5b8035600281900b8114610bd3575f80fd5b5f60a08284031215615259575f80fd5b60405160a0810167ffffffffffffffff8111828210171561527c5761527c61519f565b604052905080823561528d8161509b565b8152602083013561529d8161509b565b60208201526152ae60408401615226565b60408201526152bf60608401615238565b606082015260808301356152d28161509b565b6080919091015292915050565b5f8083601f8401126152ef575f80fd5b50813567ffffffffffffffff811115615306575f80fd5b60208301915083602082850101111561531d575f80fd5b9250929050565b5f805f805f6101008688031215615339575f80fd5b6153438787615249565b945060a0860135935060c0860135925060e086013567ffffffffffffffff81111561536c575f80fd5b615378888289016152df565b969995985093965092949392505050565b5f60208284031215615399575f80fd5b81356107f78161509b565b5f80604083850312156153b5575f80fd5b50508035926020909101359150565b602080825282518282018190525f918401906040840190835b818110156153fb5783518352602093840193909201916001016153dd565b509095945050505050565b5f8060208385031215615417575f80fd5b823567ffffffffffffffff81111561542d575f80fd5b615439858286016152df565b90969095509350505050565b602081525f82518060208401528060208501604085015e5f604082850101526040601f19601f83011684010191505092915050565b5f8060c0838503121561548b575f80fd5b6154958484615249565b91506154a360a08401615226565b90509250929050565b80358015158114610bd3575f80fd5b5f80604083850312156154cc575f80fd5b82356154d78161509b565b91506154a3602084016154ac565b5f805f808486036101408112156154fa575f80fd5b6155048787615249565b945060807fffffffffffffffffffffffffffffffffffffffffffffffffffffffffffffff6082011215615535575f80fd5b5061553e6151cc565b61554a60a08701615238565b815261555860c08701615238565b602082015260e086013560408201526101008601356060820152925061012085013567ffffffffffffffff81111561558e575f80fd5b61559a878288016152df565b95989497509550505050565b5f8060c083850312156155b7575f80fd5b6155c18484615249565b915060a08301356155d18161509b565b809150509250929050565b5f80602083850312156155ed575f80fd5b823567ffffffffffffffff811115615603575f80fd5b8301601f81018513615613575f80fd5b803567ffffffffffffffff811115615629575f80fd5b8560208260051b840101111561563d575f80fd5b6020919091019590945092505050565b5f806040838503121561565e575f80fd5b82356156698161509b565b915060208301356155d18161509b565b5f805f8084860361012081121561568e575f80fd5b6156988787615249565b945060607fffffffffffffffffffffffffffffffffffffffffffffffffffffffffffffff60820112156156c9575f80fd5b506040516060810167ffffffffffffffff811182821017156156ed576156ed61519f565b6040526156fc60a087016154ac565b815260c0860135602082015260e08601356157168161509b565b6040820152925061010085013567ffffffffffffffff81111561558e575f80fd5b5f805f806080858703121561574a575f80fd5b84356157558161509b565b935060208501356157658161509b565b93969395505050506040820135916060013590565b7f4e487b71000000000000000000000000000000000000000000000000000000005f52601160045260245ffd5b8181038181111561073e5761073e61577a565b8082018082111561073e5761073e61577a565b81835281816020850137505f602082840101525f6020601f19601f840116840101905092915050565b602081525f611a526020830184866157cd565b5f60208284031215615819575f80fd5b815167ffffffffffffffff81111561582f575f80fd5b8201601f8101841361583f575f80fd5b805167ffffffffffffffff8111156158595761585961519f565b61586c6020601f19601f840116016151f5565b818152856020838501011115615880575f80fd5b8160208401602083015e5f91810160200191909152949350505050565b6001600160a01b038716815261590460208201876001600160a01b0381511682526001600160a01b03602082015116602083015262ffffff6040820151166040830152606081015160020b60608301526001600160a01b0360808201511660808301525050565b8460c08201528360e08201526101206101008201525f615929610120830184866157cd565b98975050505050505050565b6001600160a01b038616815261599c60208201866001600160a01b0381511682526001600160a01b03602082015116602083015262ffffff6040820151166040830152606081015160020b60608301526001600160a01b0360808201511660808301525050565b8351600290810b60c08301526020850151900b60e0820152604084015161010082015260608401516101208201526101606101408201525f614913610160830184866157cd565b6001600160a01b0388168152615a4a60208201886001600160a01b0381511682526001600160a01b03602082015116602083015262ffffff6040820151166040830152606081015160020b60608301526001600160a01b0360808201511660808301525050565b8551600290810b60c08301526020870151900b60e08201526040860151610100820152606086015161012082015284610140820152836101608201526101a06101808201525f613f356101a0830184866157cd565b6001600160a01b038416815260e08101615b0a60208301856001600160a01b0381511682526001600160a01b03602082015116602083015262ffffff6040820151166040830152606081015160020b60608301526001600160a01b0360808201511660808301525050565b6001600160a01b03831660c0830152949350505050565b6001600160a01b03851681526101008101615b8d60208301866001600160a01b0381511682526001600160a01b03602082015116602083015262ffffff6040820151166040830152606081015160020b60608301526001600160a01b0360808201511660808301525050565b6001600160a01b03841660c08301528260020b60e083015295945050505050565b5f60208284031215615bbe575f80fd5b5051919050565b6001600160a01b0386168152615c2c60208201866001600160a01b0381511682526001600160a01b03602082015116602083015262ffffff6040820151166040830152606081015160020b60608301526001600160a01b0360808201511660808301525050565b8351151560c0820152602084015160e082015260408401516001600160a01b03166101008201526101406101208201525f614913610140830184866157cd565b8082018281125f8312801582168215821617156112845761128461577a565b6001600160a01b0387168152615cf260208201876001600160a01b0381511682526001600160a01b03602082015116602083015262ffffff6040820151166040830152606081015160020b60608301526001600160a01b0360808201511660808301525050565b8451151560c0820152602085015160e082015260408501516001600160a01b0316610100820152836101208201526101606101408201525f615929610160830184866157cd565b600f81810b9083900b016f7fffffffffffffffffffffffffffffff81137fffffffffffffffffffffffffffffffff800000000000000000000000000000008212171561073e5761073e61577a565b805160208201517fffffffff00000000000000000000000000000000000000000000000000000000811691906004821015615dec577fffffffff00000000000000000000000000000000000000000000000000000000808360040360031b1b82161692505b5050919050565b600f82810b9082900b037fffffffffffffffffffffffffffffffff8000000000000000000000000000000081126f7fffffffffffffffffffffffffffffff8213171561073e5761073e61577a565b8181035f83128015838313168383128216171561344b5761344b61577a565b7f4e487b71000000000000000000000000000000000000000000000000000000005f52601260045260245ffd5b5f82615ec0577f4e487b71000000000000000000000000000000000000000000000000000000005f52601260045260245ffd5b50049056fea164736f6c634300081a000a",
        "linkReferences": {}
    },
    "methodIdentifiers": {
        "allowance(address,address,uint256)": "598af9e7",
        "approve(address,uint256,uint256)": "426a8493",
        "balanceOf(address,uint256)": "00fdd58e",
        "burn(address,uint256,uint256)": "f5298aca",
        "clear(address,uint256)": "80f0b44c",
        "collectProtocolFees(address,address,uint256)": "8161b874",
        "donate((address,address,uint24,int24,address),uint256,uint256,bytes)": "234266d7",
        "extsload(bytes32)": "1e2eaeaf",
        "extsload(bytes32,uint256)": "35fd631a",
        "extsload(bytes32[])": "dbd035ff",
        "exttload(bytes32)": "f135baaa",
        "exttload(bytes32[])": "9bf6645f",
        "initialize((address,address,uint24,int24,address),uint160)": "6276cbbe",
        "isOperator(address,address)": "b6363cf2",
        "mint(address,uint256,uint256)": "156e29f6",
        "modifyLiquidity((address,address,uint24,int24,address),(int24,int24,int256,bytes32),bytes)": "5a6bcfda",
        "owner()": "8da5cb5b",
        "protocolFeeController()": "f02de3b2",
        "protocolFeesAccrued(address)": "97e8cd4e",
        "setOperator(address,bool)": "558a7297",
        "setProtocolFee((address,address,uint24,int24,address),uint24)": "7e87ce7d",
        "setProtocolFeeController(address)": "2d771389",
        "settle()": "11da60b4",
        "settleFor(address)": "3dd45adb",
        "supportsInterface(bytes4)": "01ffc9a7",
        "swap((address,address,uint24,int24,address),(bool,int256,uint160),bytes)": "f3cd914c",
        "sync(address)": "a5841194",
        "take(address,address,uint256)": "0b0d9c09",
        "transfer(address,uint256,uint256)": "095bcdb6",
        "transferFrom(address,address,uint256,uint256)": "fe99049a",
        "transferOwnership(address)": "f2fde38b",
        "unlock(bytes)": "48c89491",
        "updateDynamicLPFee((address,address,uint24,int24,address),uint24)": "52759651"
    },
    "id": 45
}