{
    "abi": [
        {
            "type": "constructor",
            "inputs": [
                {
                    "name": "_poolManager",
                    "type": "address",
                    "internalType": "contract IPoolManager"
                }
            ],
            "stateMutability": "nonpayable"
        },
        {
            "type": "function",
            "name": "addReHypothecatedLiquidity",
            "inputs": [
                {
                    "name": "liquidity",
                    "type": "uint128",
                    "internalType": "uint128"
                }
            ],
            "outputs": [
                {
                    "name": "delta",
                    "type": "int256",
                    "internalType": "BalanceDelta"
                }
            ],
            "stateMutability": "payable"
        },
        {
            "type": "function",
            "name": "afterAddLiquidity",
            "inputs": [
                {
                    "name": "sender",
                    "type": "address",
                    "internalType": "address"
                },
                {
                    "name": "key",
                    "type": "tuple",
                    "internalType": "struct PoolKey",
                    "components": [
                        {
                            "name": "currency0",
                            "type": "address",
                            "internalType": "Currency"
                        },
                        {
                            "name": "currency1",
                            "type": "address",
                            "internalType": "Currency"
                        },
                        {
                            "name": "fee",
                            "type": "uint24",
                            "internalType": "uint24"
                        },
                        {
                            "name": "tickSpacing",
                            "type": "int24",
                            "internalType": "int24"
                        },
                        {
                            "name": "hooks",
                            "type": "address",
                            "internalType": "contract IHooks"
                        }
                    ]
                },
                {
                    "name": "params",
                    "type": "tuple",
                    "internalType": "struct ModifyLiquidityParams",
                    "components": [
                        {
                            "name": "tickLower",
                            "type": "int24",
                            "internalType": "int24"
                        },
                        {
                            "name": "tickUpper",
                            "type": "int24",
                            "internalType": "int24"
                        },
                        {
                            "name": "liquidityDelta",
                            "type": "int256",
                            "internalType": "int256"
                        },
                        {
                            "name": "salt",
                            "type": "bytes32",
                            "internalType": "bytes32"
                        }
                    ]
                },
                {
                    "name": "delta0",
                    "type": "int256",
                    "internalType": "BalanceDelta"
                },
                {
                    "name": "delta1",
                    "type": "int256",
                    "internalType": "BalanceDelta"
                },
                {
                    "name": "hookData",
                    "type": "bytes",
                    "internalType": "bytes"
                }
            ],
            "outputs": [
                {
                    "name": "",
                    "type": "bytes4",
                    "internalType": "bytes4"
                },
                {
                    "name": "",
                    "type": "int256",
                    "internalType": "BalanceDelta"
                }
            ],
            "stateMutability": "nonpayable"
        },
        {
            "type": "function",
            "name": "afterDonate",
            "inputs": [
                {
                    "name": "sender",
                    "type": "address",
                    "internalType": "address"
                },
                {
                    "name": "key",
                    "type": "tuple",
                    "internalType": "struct PoolKey",
                    "components": [
                        {
                            "name": "currency0",
                            "type": "address",
                            "internalType": "Currency"
                        },
                        {
                            "name": "currency1",
                            "type": "address",
                            "internalType": "Currency"
                        },
                        {
                            "name": "fee",
                            "type": "uint24",
                            "internalType": "uint24"
                        },
                        {
                            "name": "tickSpacing",
                            "type": "int24",
                            "internalType": "int24"
                        },
                        {
                            "name": "hooks",
                            "type": "address",
                            "internalType": "contract IHooks"
                        }
                    ]
                },
                {
                    "name": "amount0",
                    "type": "uint256",
                    "internalType": "uint256"
                },
                {
                    "name": "amount1",
                    "type": "uint256",
                    "internalType": "uint256"
                },
                {
                    "name": "hookData",
                    "type": "bytes",
                    "internalType": "bytes"
                }
            ],
            "outputs": [
                {
                    "name": "",
                    "type": "bytes4",
                    "internalType": "bytes4"
                }
            ],
            "stateMutability": "nonpayable"
        },
        {
            "type": "function",
            "name": "afterInitialize",
            "inputs": [
                {
                    "name": "sender",
                    "type": "address",
                    "internalType": "address"
                },
                {
                    "name": "key",
                    "type": "tuple",
                    "internalType": "struct PoolKey",
                    "components": [
                        {
                            "name": "currency0",
                            "type": "address",
                            "internalType": "Currency"
                        },
                        {
                            "name": "currency1",
                            "type": "address",
                            "internalType": "Currency"
                        },
                        {
                            "name": "fee",
                            "type": "uint24",
                            "internalType": "uint24"
                        },
                        {
                            "name": "tickSpacing",
                            "type": "int24",
                            "internalType": "int24"
                        },
                        {
                            "name": "hooks",
                            "type": "address",
                            "internalType": "contract IHooks"
                        }
                    ]
                },
                {
                    "name": "sqrtPriceX96",
                    "type": "uint160",
                    "internalType": "uint160"
                },
                {
                    "name": "tick",
                    "type": "int24",
                    "internalType": "int24"
                }
            ],
            "outputs": [
                {
                    "name": "",
                    "type": "bytes4",
                    "internalType": "bytes4"
                }
            ],
            "stateMutability": "nonpayable"
        },
        {
            "type": "function",
            "name": "afterRemoveLiquidity",
            "inputs": [
                {
                    "name": "sender",
                    "type": "address",
                    "internalType": "address"
                },
                {
                    "name": "key",
                    "type": "tuple",
                    "internalType": "struct PoolKey",
                    "components": [
                        {
                            "name": "currency0",
                            "type": "address",
                            "internalType": "Currency"
                        },
                        {
                            "name": "currency1",
                            "type": "address",
                            "internalType": "Currency"
                        },
                        {
                            "name": "fee",
                            "type": "uint24",
                            "internalType": "uint24"
                        },
                        {
                            "name": "tickSpacing",
                            "type": "int24",
                            "internalType": "int24"
                        },
                        {
                            "name": "hooks",
                            "type": "address",
                            "internalType": "contract IHooks"
                        }
                    ]
                },
                {
                    "name": "params",
                    "type": "tuple",
                    "internalType": "struct ModifyLiquidityParams",
                    "components": [
                        {
                            "name": "tickLower",
                            "type": "int24",
                            "internalType": "int24"
                        },
                        {
                            "name": "tickUpper",
                            "type": "int24",
                            "internalType": "int24"
                        },
                        {
                            "name": "liquidityDelta",
                            "type": "int256",
                            "internalType": "int256"
                        },
                        {
                            "name": "salt",
                            "type": "bytes32",
                            "internalType": "bytes32"
                        }
                    ]
                },
                {
                    "name": "delta0",
                    "type": "int256",
                    "internalType": "BalanceDelta"
                },
                {
                    "name": "delta1",
                    "type": "int256",
                    "internalType": "BalanceDelta"
                },
                {
                    "name": "hookData",
                    "type": "bytes",
                    "internalType": "bytes"
                }
            ],
            "outputs": [
                {
                    "name": "",
                    "type": "bytes4",
                    "internalType": "bytes4"
                },
                {
                    "name": "",
                    "type": "int256",
                    "internalType": "BalanceDelta"
                }
            ],
            "stateMutability": "nonpayable"
        },
        {
            "type": "function",
            "name": "afterSwap",
            "inputs": [
                {
                    "name": "sender",
                    "type": "address",
                    "internalType": "address"
                },
                {
                    "name": "key",
                    "type": "tuple",
                    "internalType": "struct PoolKey",
                    "components": [
                        {
                            "name": "currency0",
                            "type": "address",
                            "internalType": "Currency"
                        },
                        {
                            "name": "currency1",
                            "type": "address",
                            "internalType": "Currency"
                        },
                        {
                            "name": "fee",
                            "type": "uint24",
                            "internalType": "uint24"
                        },
                        {
                            "name": "tickSpacing",
                            "type": "int24",
                            "internalType": "int24"
                        },
                        {
                            "name": "hooks",
                            "type": "address",
                            "internalType": "contract IHooks"
                        }
                    ]
                },
                {
                    "name": "params",
                    "type": "tuple",
                    "internalType": "struct SwapParams",
                    "components": [
                        {
                            "name": "zeroForOne",
                            "type": "bool",
                            "internalType": "bool"
                        },
                        {
                            "name": "amountSpecified",
                            "type": "int256",
                            "internalType": "int256"
                        },
                        {
                            "name": "sqrtPriceLimitX96",
                            "type": "uint160",
                            "internalType": "uint160"
                        }
                    ]
                },
                {
                    "name": "delta",
                    "type": "int256",
                    "internalType": "BalanceDelta"
                },
                {
                    "name": "hookData",
                    "type": "bytes",
                    "internalType": "bytes"
                }
            ],
            "outputs": [
                {
                    "name": "",
                    "type": "bytes4",
                    "internalType": "bytes4"
                },
                {
                    "name": "",
                    "type": "int128",
                    "internalType": "int128"
                }
            ],
            "stateMutability": "nonpayable"
        },
        {
            "type": "function",
            "name": "afterSwapCount",
            "inputs": [
                {
                    "name": "",
                    "type": "bytes32",
                    "internalType": "PoolId"
                }
            ],
            "outputs": [
                {
                    "name": "count",
                    "type": "uint256",
                    "internalType": "uint256"
                }
            ],
            "stateMutability": "view"
        },
        {
            "type": "function",
            "name": "allowance",
            "inputs": [
                {
                    "name": "owner",
                    "type": "address",
                    "internalType": "address"
                },
                {
                    "name": "spender",
                    "type": "address",
                    "internalType": "address"
                }
            ],
            "outputs": [
                {
                    "name": "",
                    "type": "uint256",
                    "internalType": "uint256"
                }
            ],
            "stateMutability": "view"
        },
        {
            "type": "function",
            "name": "approve",
            "inputs": [
                {
                    "name": "spender",
                    "type": "address",
                    "internalType": "address"
                },
                {
                    "name": "value",
                    "type": "uint256",
                    "internalType": "uint256"
                }
            ],
            "outputs": [
                {
                    "name": "",
                    "type": "bool",
                    "internalType": "bool"
                }
            ],
            "stateMutability": "nonpayable"
        },
        {
            "type": "function",
            "name": "balanceOf",
            "inputs": [
                {
                    "name": "account",
                    "type": "address",
                    "internalType": "address"
                }
            ],
            "outputs": [
                {
                    "name": "",
                    "type": "uint256",
                    "internalType": "uint256"
                }
            ],
            "stateMutability": "view"
        },
        {
            "type": "function",
            "name": "beforeAddLiquidity",
            "inputs": [
                {
                    "name": "sender",
                    "type": "address",
                    "internalType": "address"
                },
                {
                    "name": "key",
                    "type": "tuple",
                    "internalType": "struct PoolKey",
                    "components": [
                        {
                            "name": "currency0",
                            "type": "address",
                            "internalType": "Currency"
                        },
                        {
                            "name": "currency1",
                            "type": "address",
                            "internalType": "Currency"
                        },
                        {
                            "name": "fee",
                            "type": "uint24",
                            "internalType": "uint24"
                        },
                        {
                            "name": "tickSpacing",
                            "type": "int24",
                            "internalType": "int24"
                        },
                        {
                            "name": "hooks",
                            "type": "address",
                            "internalType": "contract IHooks"
                        }
                    ]
                },
                {
                    "name": "params",
                    "type": "tuple",
                    "internalType": "struct ModifyLiquidityParams",
                    "components": [
                        {
                            "name": "tickLower",
                            "type": "int24",
                            "internalType": "int24"
                        },
                        {
                            "name": "tickUpper",
                            "type": "int24",
                            "internalType": "int24"
                        },
                        {
                            "name": "liquidityDelta",
                            "type": "int256",
                            "internalType": "int256"
                        },
                        {
                            "name": "salt",
                            "type": "bytes32",
                            "internalType": "bytes32"
                        }
                    ]
                },
                {
                    "name": "hookData",
                    "type": "bytes",
                    "internalType": "bytes"
                }
            ],
            "outputs": [
                {
                    "name": "",
                    "type": "bytes4",
                    "internalType": "bytes4"
                }
            ],
            "stateMutability": "nonpayable"
        },
        {
            "type": "function",
            "name": "beforeAddLiquidityCount",
            "inputs": [
                {
                    "name": "",
                    "type": "bytes32",
                    "internalType": "PoolId"
                }
            ],
            "outputs": [
                {
                    "name": "count",
                    "type": "uint256",
                    "internalType": "uint256"
                }
            ],
            "stateMutability": "view"
        },
        {
            "type": "function",
            "name": "beforeDonate",
            "inputs": [
                {
                    "name": "sender",
                    "type": "address",
                    "internalType": "address"
                },
                {
                    "name": "key",
                    "type": "tuple",
                    "internalType": "struct PoolKey",
                    "components": [
                        {
                            "name": "currency0",
                            "type": "address",
                            "internalType": "Currency"
                        },
                        {
                            "name": "currency1",
                            "type": "address",
                            "internalType": "Currency"
                        },
                        {
                            "name": "fee",
                            "type": "uint24",
                            "internalType": "uint24"
                        },
                        {
                            "name": "tickSpacing",
                            "type": "int24",
                            "internalType": "int24"
                        },
                        {
                            "name": "hooks",
                            "type": "address",
                            "internalType": "contract IHooks"
                        }
                    ]
                },
                {
                    "name": "amount0",
                    "type": "uint256",
                    "internalType": "uint256"
                },
                {
                    "name": "amount1",
                    "type": "uint256",
                    "internalType": "uint256"
                },
                {
                    "name": "hookData",
                    "type": "bytes",
                    "internalType": "bytes"
                }
            ],
            "outputs": [
                {
                    "name": "",
                    "type": "bytes4",
                    "internalType": "bytes4"
                }
            ],
            "stateMutability": "nonpayable"
        },
        {
            "type": "function",
            "name": "beforeInitialize",
            "inputs": [
                {
                    "name": "sender",
                    "type": "address",
                    "internalType": "address"
                },
                {
                    "name": "key",
                    "type": "tuple",
                    "internalType": "struct PoolKey",
                    "components": [
                        {
                            "name": "currency0",
                            "type": "address",
                            "internalType": "Currency"
                        },
                        {
                            "name": "currency1",
                            "type": "address",
                            "internalType": "Currency"
                        },
                        {
                            "name": "fee",
                            "type": "uint24",
                            "internalType": "uint24"
                        },
                        {
                            "name": "tickSpacing",
                            "type": "int24",
                            "internalType": "int24"
                        },
                        {
                            "name": "hooks",
                            "type": "address",
                            "internalType": "contract IHooks"
                        }
                    ]
                },
                {
                    "name": "sqrtPriceX96",
                    "type": "uint160",
                    "internalType": "uint160"
                }
            ],
            "outputs": [
                {
                    "name": "",
                    "type": "bytes4",
                    "internalType": "bytes4"
                }
            ],
            "stateMutability": "nonpayable"
        },
        {
            "type": "function",
            "name": "beforeRemoveLiquidity",
            "inputs": [
                {
                    "name": "sender",
                    "type": "address",
                    "internalType": "address"
                },
                {
                    "name": "key",
                    "type": "tuple",
                    "internalType": "struct PoolKey",
                    "components": [
                        {
                            "name": "currency0",
                            "type": "address",
                            "internalType": "Currency"
                        },
                        {
                            "name": "currency1",
                            "type": "address",
                            "internalType": "Currency"
                        },
                        {
                            "name": "fee",
                            "type": "uint24",
                            "internalType": "uint24"
                        },
                        {
                            "name": "tickSpacing",
                            "type": "int24",
                            "internalType": "int24"
                        },
                        {
                            "name": "hooks",
                            "type": "address",
                            "internalType": "contract IHooks"
                        }
                    ]
                },
                {
                    "name": "params",
                    "type": "tuple",
                    "internalType": "struct ModifyLiquidityParams",
                    "components": [
                        {
                            "name": "tickLower",
                            "type": "int24",
                            "internalType": "int24"
                        },
                        {
                            "name": "tickUpper",
                            "type": "int24",
                            "internalType": "int24"
                        },
                        {
                            "name": "liquidityDelta",
                            "type": "int256",
                            "internalType": "int256"
                        },
                        {
                            "name": "salt",
                            "type": "bytes32",
                            "internalType": "bytes32"
                        }
                    ]
                },
                {
                    "name": "hookData",
                    "type": "bytes",
                    "internalType": "bytes"
                }
            ],
            "outputs": [
                {
                    "name": "",
                    "type": "bytes4",
                    "internalType": "bytes4"
                }
            ],
            "stateMutability": "nonpayable"
        },
        {
            "type": "function",
            "name": "beforeRemoveLiquidityCount",
            "inputs": [
                {
                    "name": "",
                    "type": "bytes32",
                    "internalType": "PoolId"
                }
            ],
            "outputs": [
                {
                    "name": "count",
                    "type": "uint256",
                    "internalType": "uint256"
                }
            ],
            "stateMutability": "view"
        },
        {
            "type": "function",
            "name": "beforeSwap",
            "inputs": [
                {
                    "name": "sender",
                    "type": "address",
                    "internalType": "address"
                },
                {
                    "name": "key",
                    "type": "tuple",
                    "internalType": "struct PoolKey",
                    "components": [
                        {
                            "name": "currency0",
                            "type": "address",
                            "internalType": "Currency"
                        },
                        {
                            "name": "currency1",
                            "type": "address",
                            "internalType": "Currency"
                        },
                        {
                            "name": "fee",
                            "type": "uint24",
                            "internalType": "uint24"
                        },
                        {
                            "name": "tickSpacing",
                            "type": "int24",
                            "internalType": "int24"
                        },
                        {
                            "name": "hooks",
                            "type": "address",
                            "internalType": "contract IHooks"
                        }
                    ]
                },
                {
                    "name": "params",
                    "type": "tuple",
                    "internalType": "struct SwapParams",
                    "components": [
                        {
                            "name": "zeroForOne",
                            "type": "bool",
                            "internalType": "bool"
                        },
                        {
                            "name": "amountSpecified",
                            "type": "int256",
                            "internalType": "int256"
                        },
                        {
                            "name": "sqrtPriceLimitX96",
                            "type": "uint160",
                            "internalType": "uint160"
                        }
                    ]
                },
                {
                    "name": "hookData",
                    "type": "bytes",
                    "internalType": "bytes"
                }
            ],
            "outputs": [
                {
                    "name": "",
                    "type": "bytes4",
                    "internalType": "bytes4"
                },
                {
                    "name": "",
                    "type": "int256",
                    "internalType": "BeforeSwapDelta"
                },
                {
                    "name": "",
                    "type": "uint24",
                    "internalType": "uint24"
                }
            ],
            "stateMutability": "nonpayable"
        },
        {
            "type": "function",
            "name": "beforeSwapCount",
            "inputs": [
                {
                    "name": "",
                    "type": "bytes32",
                    "internalType": "PoolId"
                }
            ],
            "outputs": [
                {
                    "name": "count",
                    "type": "uint256",
                    "internalType": "uint256"
                }
            ],
            "stateMutability": "view"
        },
        {
            "type": "function",
            "name": "decimals",
            "inputs": [],
            "outputs": [
                {
                    "name": "",
                    "type": "uint8",
                    "internalType": "uint8"
                }
            ],
            "stateMutability": "view"
        },
        {
            "type": "function",
            "name": "getHookPermissions",
            "inputs": [],
            "outputs": [
                {
                    "name": "",
                    "type": "tuple",
                    "internalType": "struct Hooks.Permissions",
                    "components": [
                        {
                            "name": "beforeInitialize",
                            "type": "bool",
                            "internalType": "bool"
                        },
                        {
                            "name": "afterInitialize",
                            "type": "bool",
                            "internalType": "bool"
                        },
                        {
                            "name": "beforeAddLiquidity",
                            "type": "bool",
                            "internalType": "bool"
                        },
                        {
                            "name": "afterAddLiquidity",
                            "type": "bool",
                            "internalType": "bool"
                        },
                        {
                            "name": "beforeRemoveLiquidity",
                            "type": "bool",
                            "internalType": "bool"
                        },
                        {
                            "name": "afterRemoveLiquidity",
                            "type": "bool",
                            "internalType": "bool"
                        },
                        {
                            "name": "beforeSwap",
                            "type": "bool",
                            "internalType": "bool"
                        },
                        {
                            "name": "afterSwap",
                            "type": "bool",
                            "internalType": "bool"
                        },
                        {
                            "name": "beforeDonate",
                            "type": "bool",
                            "internalType": "bool"
                        },
                        {
                            "name": "afterDonate",
                            "type": "bool",
                            "internalType": "bool"
                        },
                        {
                            "name": "beforeSwapReturnDelta",
                            "type": "bool",
                            "internalType": "bool"
                        },
                        {
                            "name": "afterSwapReturnDelta",
                            "type": "bool",
                            "internalType": "bool"
                        },
                        {
                            "name": "afterAddLiquidityReturnDelta",
                            "type": "bool",
                            "internalType": "bool"
                        },
                        {
                            "name": "afterRemoveLiquidityReturnDelta",
                            "type": "bool",
                            "internalType": "bool"
                        }
                    ]
                }
            ],
            "stateMutability": "pure"
        },
        {
            "type": "function",
            "name": "getTickLower",
            "inputs": [],
            "outputs": [
                {
                    "name": "",
                    "type": "int24",
                    "internalType": "int24"
                }
            ],
            "stateMutability": "view"
        },
        {
            "type": "function",
            "name": "getTickUpper",
            "inputs": [],
            "outputs": [
                {
                    "name": "",
                    "type": "int24",
                    "internalType": "int24"
                }
            ],
            "stateMutability": "view"
        },
        {
            "type": "function",
            "name": "getVaultAddress",
            "inputs": [
                {
                    "name": "currency",
                    "type": "address",
                    "internalType": "Currency"
                }
            ],
            "outputs": [
                {
                    "name": "",
                    "type": "address",
                    "internalType": "address"
                }
            ],
            "stateMutability": "view"
        },
        {
            "type": "function",
            "name": "name",
            "inputs": [],
            "outputs": [
                {
                    "name": "",
                    "type": "string",
                    "internalType": "string"
                }
            ],
            "stateMutability": "view"
        },
        {
            "type": "function",
            "name": "poolManager",
            "inputs": [],
            "outputs": [
                {
                    "name": "",
                    "type": "address",
                    "internalType": "contract IPoolManager"
                }
            ],
            "stateMutability": "view"
        },
        {
            "type": "function",
            "name": "removeReHypothecatedLiquidity",
            "inputs": [
                {
                    "name": "owner",
                    "type": "address",
                    "internalType": "address"
                }
            ],
            "outputs": [
                {
                    "name": "delta",
                    "type": "int256",
                    "internalType": "BalanceDelta"
                }
            ],
            "stateMutability": "nonpayable"
        },
        {
            "type": "function",
            "name": "setVaults",
            "inputs": [
                {
                    "name": "vault0_",
                    "type": "address",
                    "internalType": "address"
                },
                {
                    "name": "vault1_",
                    "type": "address",
                    "internalType": "address"
                }
            ],
            "outputs": [],
            "stateMutability": "nonpayable"
        },
        {
            "type": "function",
            "name": "symbol",
            "inputs": [],
            "outputs": [
                {
                    "name": "",
                    "type": "string",
                    "internalType": "string"
                }
            ],
            "stateMutability": "view"
        },
        {
            "type": "function",
            "name": "totalSupply",
            "inputs": [],
            "outputs": [
                {
                    "name": "",
                    "type": "uint256",
                    "internalType": "uint256"
                }
            ],
            "stateMutability": "view"
        },
        {
            "type": "function",
            "name": "transfer",
            "inputs": [
                {
                    "name": "to",
                    "type": "address",
                    "internalType": "address"
                },
                {
                    "name": "value",
                    "type": "uint256",
                    "internalType": "uint256"
                }
            ],
            "outputs": [
                {
                    "name": "",
                    "type": "bool",
                    "internalType": "bool"
                }
            ],
            "stateMutability": "nonpayable"
        },
        {
            "type": "function",
            "name": "transferFrom",
            "inputs": [
                {
                    "name": "from",
                    "type": "address",
                    "internalType": "address"
                },
                {
                    "name": "to",
                    "type": "address",
                    "internalType": "address"
                },
                {
                    "name": "value",
                    "type": "uint256",
                    "internalType": "uint256"
                }
            ],
            "outputs": [
                {
                    "name": "",
                    "type": "bool",
                    "internalType": "bool"
                }
            ],
            "stateMutability": "nonpayable"
        },
        {
            "type": "event",
            "name": "Approval",
            "inputs": [
                {
                    "name": "owner",
                    "type": "address",
                    "indexed": true,
                    "internalType": "address"
                },
                {
                    "name": "spender",
                    "type": "address",
                    "indexed": true,
                    "internalType": "address"
                },
                {
                    "name": "value",
                    "type": "uint256",
                    "indexed": false,
                    "internalType": "uint256"
                }
            ],
            "anonymous": false
        },
        {
            "type": "event",
            "name": "Transfer",
            "inputs": [
                {
                    "name": "from",
                    "type": "address",
                    "indexed": true,
                    "internalType": "address"
                },
                {
                    "name": "to",
                    "type": "address",
                    "indexed": true,
                    "internalType": "address"
                },
                {
                    "name": "value",
                    "type": "uint256",
                    "indexed": false,
                    "internalType": "uint256"
                }
            ],
            "anonymous": false
        },
        {
            "type": "error",
            "name": "AddressEmptyCode",
            "inputs": [
                {
                    "name": "target",
                    "type": "address",
                    "internalType": "address"
                }
            ]
        },
        {
            "type": "error",
            "name": "AddressInsufficientBalance",
            "inputs": [
                {
                    "name": "account",
                    "type": "address",
                    "internalType": "address"
                }
            ]
        },
        {
            "type": "error",
            "name": "AlreadyInitialized",
            "inputs": []
        },
        {
            "type": "error",
            "name": "ERC20InsufficientAllowance",
            "inputs": [
                {
                    "name": "spender",
                    "type": "address",
                    "internalType": "address"
                },
                {
                    "name": "allowance",
                    "type": "uint256",
                    "internalType": "uint256"
                },
                {
                    "name": "needed",
                    "type": "uint256",
                    "internalType": "uint256"
                }
            ]
        },
        {
            "type": "error",
            "name": "ERC20InsufficientBalance",
            "inputs": [
                {
                    "name": "sender",
                    "type": "address",
                    "internalType": "address"
                },
                {
                    "name": "balance",
                    "type": "uint256",
                    "internalType": "uint256"
                },
                {
                    "name": "needed",
                    "type": "uint256",
                    "internalType": "uint256"
                }
            ]
        },
        {
            "type": "error",
            "name": "ERC20InvalidApprover",
            "inputs": [
                {
                    "name": "approver",
                    "type": "address",
                    "internalType": "address"
                }
            ]
        },
        {
            "type": "error",
            "name": "ERC20InvalidReceiver",
            "inputs": [
                {
                    "name": "receiver",
                    "type": "address",
                    "internalType": "address"
                }
            ]
        },
        {
            "type": "error",
            "name": "ERC20InvalidSender",
            "inputs": [
                {
                    "name": "sender",
                    "type": "address",
                    "internalType": "address"
                }
            ]
        },
        {
            "type": "error",
            "name": "ERC20InvalidSpender",
            "inputs": [
                {
                    "name": "spender",
                    "type": "address",
                    "internalType": "address"
                }
            ]
        },
        {
            "type": "error",
            "name": "FailedInnerCall",
            "inputs": []
        },
        {
            "type": "error",
            "name": "HookNotImplemented",
            "inputs": []
        },
        {
            "type": "error",
            "name": "InvalidAmounts",
            "inputs": []
        },
        {
            "type": "error",
            "name": "InvalidCurrency",
            "inputs": []
        },
        {
            "type": "error",
            "name": "InvalidPool",
            "inputs": []
        },
        {
            "type": "error",
            "name": "NotPoolManager",
            "inputs": []
        },
        {
            "type": "error",
            "name": "NotSelf",
            "inputs": []
        },
        {
            "type": "error",
            "name": "PoolKeyNotInitialized",
            "inputs": []
        },
        {
            "type": "error",
            "name": "SafeERC20FailedOperation",
            "inputs": [
                {
                    "name": "token",
                    "type": "address",
                    "internalType": "address"
                }
            ]
        },
        {
            "type": "error",
            "name": "SafeERC20FailedOperation",
            "inputs": [
                {
                    "name": "token",
                    "type": "address",
                    "internalType": "address"
                }
            ]
        },
        {
            "type": "error",
            "name": "ZeroLiquidity",
            "inputs": []
        }
    ],
    "bytecode": {
        "object": "0x60a060405234801561000f575f80fd5b5060405161442338038061442383398101604081905261002e91610310565b604080518082018252601781527f466c61736869466952654879706f746865636174696f6e0000000000000000006020808301919091528251808401909352600483526308c8ca4960e31b908301526001600160a01b0383166080529082610095306100b8565b5060036100a283826103d5565b5060046100af82826103d5565b5050505061048f565b6101a8816101a3604080516101c0810182525f80825260208201819052918101829052606081018290526080810182905260a0810182905260c0810182905260e08101829052610100810182905261012081018290526101408101829052610160810182905261018081018290526101a081019190915250604080516101c08101825260018082525f60208301819052928201839052606082018390526080820183905260a0820183905260c0820181905260e0820152610100810182905261012081018290526101408101829052610160810182905261018081018290526101a081019190915290565b6101ab565b50565b80511515612000831615151415806101cf5750602081015115156110008316151514155b806101e65750604081015115156108008316151514155b806101fd5750606081015115156104008316151514155b806102145750608081015115156102008316151514155b8061022b575060a081015115156101008316151514155b80610241575060c0810151151560808316151514155b80610257575060e0810151151560408316151514155b8061026e5750610100810151151560208316151514155b806102855750610120810151151560108316151514155b8061029c5750610140810151151560088316151514155b806102b35750610160810151151560048316151514155b806102ca5750610180810151151560028316151514155b806102e157506101a0810151151560018316151514155b156102f7576102f7630732d7b560e51b836102fb565b5050565b815f526001600160a01b03811660045260245ffd5b5f60208284031215610320575f80fd5b81516001600160a01b0381168114610336575f80fd5b9392505050565b634e487b7160e01b5f52604160045260245ffd5b600181811c9082168061036557607f821691505b60208210810361038357634e487b7160e01b5f52602260045260245ffd5b50919050565b601f8211156103d057805f5260205f20601f840160051c810160208510156103ae5750805b601f840160051c820191505b818110156103cd575f81556001016103ba565b50505b505050565b81516001600160401b038111156103ee576103ee61033d565b610402816103fc8454610351565b84610389565b6020601f821160018114610434575f831561041d5750848201515b5f19600385901b1c1916600184901b1784556103cd565b5f84815260208120601f198516915b828110156104635787850151825560209485019460019092019101610443565b508482101561048057868401515f19600387901b60f8161c191681555b50505050600190811b01905550565b608051613f1a6105095f395f8181610738015281816108a90152818161094a01528181610b1a01528181610bc801528181610c4a01528181610e2401528181610ea501528181610f21015281816118130152818161220d0152818161253f01528181612574015281816125b401526126040152613f1a5ff3fe6080604052600436106101d0575f3560e01c806370a08231116100fd578063c693995711610092578063dc98354e11610062578063dc98354e14610772578063dd62ed3e14610791578063e1b4af6914610587578063ef88c31e146107d5575f80fd5b8063c6939957146106a6578063dacdbe77146106d1578063db6a9451146106fc578063dc4c90d314610727575f80fd5b8063a9059cbb116100cd578063a9059cbb1461050e578063b47b2fb11461052d578063b6a8b0fa14610587578063c4e833ce146105a6575f80fd5b806370a08231146104b35780638f743357146104e757806395d89b41146104fa5780639f063efc1461043d575f80fd5b8063313ce567116101735780635c338d32116101435780635c338d32146103fe578063647504be146104295780636c2bbe7e1461043d5780636fe7e6eb14610494575f80fd5b8063313ce567146102f857806332c684ad146103135780634c451a6a1461033a578063575e24b41461039c575f80fd5b806321d0ee70116101ae57806321d0ee701461024b57806323b872dd1461029b578063259982e5146102ba578063273264aa146102d9575f80fd5b806306fdde03146101d4578063095ea7b3146101fe57806318160ddd1461022d575b5f80fd5b3480156101df575f80fd5b506101e86107f4565b6040516101f59190613491565b60405180910390f35b348015610209575f80fd5b5061021d610218366004613503565b610884565b60405190151581526020016101f5565b348015610238575f80fd5b506002545b6040519081526020016101f5565b348015610256575f80fd5b5061026a610265366004613598565b61089d565b6040517fffffffff0000000000000000000000000000000000000000000000000000000090911681526020016101f5565b3480156102a6575f80fd5b5061021d6102b536600461360f565b610919565b3480156102c5575f80fd5b5061026a6102d4366004613598565b61093e565b3480156102e4575f80fd5b5061023d6102f336600461364d565b6109ae565b348015610303575f80fd5b50604051601281526020016101f5565b34801561031e575f80fd5b50610327610adb565b60405160029190910b81526020016101f5565b348015610345575f80fd5b5061039a610354366004613668565b600880546001600160a01b039384167fffffffffffffffffffffffff00000000000000000000000000000000000000009182161790915560098054929093169116179055565b005b3480156103a7575f80fd5b506103bb6103b63660046136af565b610b0c565b604080517fffffffff000000000000000000000000000000000000000000000000000000009094168452602084019290925262ffffff16908201526060016101f5565b348015610409575f80fd5b5061023d610418366004613709565b600a6020525f908152604090205481565b348015610434575f80fd5b50610327610b8f565b348015610448575f80fd5b5061045c610457366004613720565b610bbb565b604080517fffffffff0000000000000000000000000000000000000000000000000000000090931683526020830191909152016101f5565b34801561049f575f80fd5b5061026a6104ae3660046137c4565b610c3e565b3480156104be575f80fd5b5061023d6104cd36600461364d565b6001600160a01b03165f9081526020819052604090205490565b61023d6104f536600461381d565b610cad565b348015610505575f80fd5b506101e8610dfb565b348015610519575f80fd5b5061021d610528366004613503565b610e0a565b348015610538575f80fd5b5061054c61054736600461384c565b610e17565b604080517fffffffff000000000000000000000000000000000000000000000000000000009093168352600f9190910b6020830152016101f5565b348015610592575f80fd5b5061026a6105a13660046138cd565b610e99565b3480156105b1575f80fd5b50610699604080516101c0810182525f80825260208201819052918101829052606081018290526080810182905260a0810182905260c0810182905260e08101829052610100810182905261012081018290526101408101829052610160810182905261018081018290526101a081019190915250604080516101c08101825260018082525f60208301819052928201839052606082018390526080820183905260a0820183905260c0820181905260e0820152610100810182905261012081018290526101408101829052610160810182905261018081018290526101a081019190915290565b6040516101f59190613927565b3480156106b1575f80fd5b5061023d6106c0366004613709565b600c6020525f908152604090205481565b3480156106dc575f80fd5b5061023d6106eb366004613709565b600b6020525f908152604090205481565b348015610707575f80fd5b5061023d610716366004613709565b600d6020525f908152604090205481565b348015610732575f80fd5b5061075a7f000000000000000000000000000000000000000000000000000000000000000081565b6040516001600160a01b0390911681526020016101f5565b34801561077d575f80fd5b5061026a61078c366004613a41565b610f15565b34801561079c575f80fd5b5061023d6107ab366004613668565b6001600160a01b039182165f90815260016020908152604080832093909416825291909152205490565b3480156107e0575f80fd5b5061075a6107ef36600461364d565b610f8b565b60606003805461080390613a88565b80601f016020809104026020016040519081016040528092919081815260200182805461082f90613a88565b801561087a5780601f106108515761010080835404028352916020019161087a565b820191905f5260205f20905b81548152906001019060200180831161085d57829003601f168201915b5050505050905090565b5f3361089181858561107c565b60019150505b92915050565b5f336001600160a01b037f00000000000000000000000000000000000000000000000000000000000000001614610900576040517fae18210a00000000000000000000000000000000000000000000000000000000815260040160405180910390fd5b61090d868686868661108e565b90505b95945050505050565b5f336109268582856110f8565b6109318585856111b0565b60019150505b9392505050565b5f336001600160a01b037f000000000000000000000000000000000000000000000000000000000000000016146109a1576040517fae18210a00000000000000000000000000000000000000000000000000000000815260040160405180910390fd5b61090d868686868661123f565b6006545f906001600160a01b03166109f2576040517fe0d1f15300000000000000000000000000000000000000000000000000000000815260040160405180910390fd5b6001600160a01b0382165f9081526020819052604081205490819003610a44576040517f1007454800000000000000000000000000000000000000000000000000000000815260040160405180910390fd5b610a4d816112a2565b91505f610a5a8360801d90565b600f0b90505f610a6a84600f0b90565b600f0b9050610a798584611443565b600554610a8f906001600160a01b031683611494565b600654610aa5906001600160a01b031682611494565b600554610abc906001600160a01b03168684611530565b600654610ad3906001600160a01b03168683611530565b505050919050565b6006545f90610b079077010000000000000000000000000000000000000000000000900460020b611633565b905090565b5f8080336001600160a01b037f00000000000000000000000000000000000000000000000000000000000000001614610b71576040517fae18210a00000000000000000000000000000000000000000000000000000000815260040160405180910390fd5b610b7e8888888888611653565b925092509250955095509592505050565b6006545f90610b079077010000000000000000000000000000000000000000000000900460020b6116d2565b5f80336001600160a01b037f00000000000000000000000000000000000000000000000000000000000000001614610c1f576040517fae18210a00000000000000000000000000000000000000000000000000000000815260040160405180910390fd5b610c2e89898989898989611707565b9150915097509795505050505050565b5f336001600160a01b037f00000000000000000000000000000000000000000000000000000000000000001614610ca1576040517fae18210a00000000000000000000000000000000000000000000000000000000815260040160405180910390fd5b6109108585858561173b565b6006545f906001600160a01b0316610cf1576040517fe0d1f15300000000000000000000000000000000000000000000000000000000815260040160405180910390fd5b816fffffffffffffffffffffffffffffffff165f03610d3c576040517f1007454800000000000000000000000000000000000000000000000000000000815260040160405180910390fd5b610d458261176e565b90505f610d528260801d90565b610d5b90613b00565b600f0b90505f610d6b83600f0b90565b610d7490613b00565b600554600f9190910b9150610d94906001600160a01b03163330856118b3565b600654610dac906001600160a01b03163330846118b3565b600554610dc2906001600160a01b03168361193b565b600654610dd8906001600160a01b03168261193b565b610df433856fffffffffffffffffffffffffffffffff166119d4565b5050919050565b60606004805461080390613a88565b5f336108918185856111b0565b5f80336001600160a01b037f00000000000000000000000000000000000000000000000000000000000000001614610e7b576040517fae18210a00000000000000000000000000000000000000000000000000000000815260040160405180910390fd5b610e89888888888888611a21565b915091505b965096945050505050565b5f336001600160a01b037f00000000000000000000000000000000000000000000000000000000000000001614610efc576040517fae18210a00000000000000000000000000000000000000000000000000000000815260040160405180910390fd5b610f0a87878787878761173b565b979650505050505050565b5f336001600160a01b037f00000000000000000000000000000000000000000000000000000000000000001614610f78576040517fae18210a00000000000000000000000000000000000000000000000000000000815260040160405180910390fd5b610f83848484611af4565b949350505050565b6040805160a0810182526005546001600160a01b03908116808352600654808316602085015274010000000000000000000000000000000000000000810462ffffff16948401949094527701000000000000000000000000000000000000000000000090930460020b6060830152600754811660808301525f92908416036110205750506008546001600160a01b0316919050565b60208101516001600160a01b0384811691160361104a5750506009546001600160a01b0316919050565b6040517ff599342800000000000000000000000000000000000000000000000000000000815260040160405180910390fd5b6110898383836001611b71565b505050565b5f600d816110ab6110a436899003890189613b57565b60a0902090565b81526020019081526020015f205f8154809291906110c890613c0a565b909155507f21d0ee7000000000000000000000000000000000000000000000000000000000979650505050505050565b6001600160a01b038381165f908152600160209081526040808320938616835292905220547fffffffffffffffffffffffffffffffffffffffffffffffffffffffffffffffff81146111aa578181101561119c576040517ffb8f41b20000000000000000000000000000000000000000000000000000000081526001600160a01b038416600482015260248101829052604481018390526064015b60405180910390fd5b6111aa84848484035f611b71565b50505050565b6001600160a01b0383166111f2576040517f96c6fd1e0000000000000000000000000000000000000000000000000000000081525f6004820152602401611193565b6001600160a01b038216611234576040517fec442f050000000000000000000000000000000000000000000000000000000081525f6004820152602401611193565b611089838383611c75565b5f600c816112556110a436899003890189613b57565b81526020019081526020015f205f81548092919061127290613c0a565b909155507f259982e500000000000000000000000000000000000000000000000000000000979650505050505050565b6005545f9081906112bb906001600160a01b0316610f8b565b6006549091505f906112d5906001600160a01b0316610f8b565b6040517fce96cb770000000000000000000000000000000000000000000000000000000081523060048201529091505f906001600160a01b0384169063ce96cb7790602401602060405180830381865afa158015611335573d5f803e3d5ffd5b505050506040513d601f19601f820116820180604052508101906113599190613c41565b6040517fce96cb770000000000000000000000000000000000000000000000000000000081523060048201529091505f906001600160a01b0384169063ce96cb7790602401602060405180830381865afa1580156113b9573d5f803e3d5ffd5b505050506040513d601f19601f820116820180604052508101906113dd9190613c41565b90505f6113f387846113ee60025490565b611db4565b90505f61140488846113ee60025490565b905061143761141283611e6f565b61141b83611e6f565b6fffffffffffffffffffffffffffffffff1660809190911b1790565b98975050505050505050565b6001600160a01b038216611485576040517f96c6fd1e0000000000000000000000000000000000000000000000000000000081525f6004820152602401611193565b611490825f83611c75565b5050565b5f61149e83610f8b565b6040517fb460af9400000000000000000000000000000000000000000000000000000000815260048101849052306024820181905260448201529091506001600160a01b0382169063b460af94906064015b6020604051808303815f875af115801561150c573d5f803e3d5ffd5b505050506040513d601f19601f820116820180604052508101906111aa9190613c41565b5f6001600160a01b03841661157e575f805f8085875af190508061157957611579835f7ff4b3b1bc00000000000000000000000000000000000000000000000000000000611ea9565b6111aa565b6040517fa9059cbb0000000000000000000000000000000000000000000000000000000081526001600160a01b038416600482015282602482015260205f6044835f895af13d15601f3d1160015f511416171691505f81525f60208201525f604082015250806111aa576111aa847fa9059cbb000000000000000000000000000000000000000000000000000000007ff27f64e400000000000000000000000000000000000000000000000000000000611ea9565b5f81600281900b620d89e88161164b5761164b613c58565b050292915050565b5f805f806116618888611f6a565b90506fffffffffffffffffffffffffffffffff8116156116a05761169e611699826fffffffffffffffffffffffffffffffff166121d8565b61220a565b505b507f575e24b400000000000000000000000000000000000000000000000000000000985f985088975095505050505050565b5f81600281900b7ffffffffffffffffffffffffffffffffffffffffffffffffffffffffffff276188161164b5761164b613c58565b5f806040517f0a85dc2900000000000000000000000000000000000000000000000000000000815260040160405180910390fd5b5f6040517f0a85dc2900000000000000000000000000000000000000000000000000000000815260040160405180910390fd5b5f80611778610b8f565b90505f611783610adb565b6040805160a080820183526005546001600160a01b039081168352600654808216602085015274010000000000000000000000000000000000000000810462ffffff16948401949094527701000000000000000000000000000000000000000000000090930460020b60608301526007549092166080820152209091505f908190611839905b6001600160a01b037f000000000000000000000000000000000000000000000000000000000000000016906122f0565b50509150915061184c86828686866123bb565b94505f6118598660801d90565b600f0b138061187357505f61186e86600f0b90565b600f0b135b156118aa576040517fd856fc5a00000000000000000000000000000000000000000000000000000000815260040160405180910390fd5b50505050919050565b604080516001600160a01b0385811660248301528416604482015260648082018490528251808303909101815260849091019091526020810180517bffffffffffffffffffffffffffffffffffffffffffffffffffffffff167f23b872dd000000000000000000000000000000000000000000000000000000001790526111aa908590612456565b6001600160a01b03821661197b576040517ff599342800000000000000000000000000000000000000000000000000000000815260040160405180910390fd5b5f61198583610f8b565b6040517f6e553f65000000000000000000000000000000000000000000000000000000008152600481018490523060248201529091506001600160a01b03821690636e553f65906044016114f0565b6001600160a01b038216611a16576040517fec442f050000000000000000000000000000000000000000000000000000000081525f6004820152602401611193565b6114905f8383611c75565b5f805f611a2d886124d0565b9050806fffffffffffffffffffffffffffffffff165f03611a7457507fb47b2fb10000000000000000000000000000000000000000000000000000000091505f9050610e8e565b611a9b611a92826fffffffffffffffffffffffffffffffff166121d8565b61169990613c85565b50611ab1611aac60208a018a61364d565b612566565b611ac4611aac60408a0160208b0161364d565b507fb47b2fb100000000000000000000000000000000000000000000000000000000985f98509650505050505050565b6007545f906001600160a01b031615611b39576040517f0dc149f000000000000000000000000000000000000000000000000000000000815260040160405180910390fd5b826005611b468282613cbb565b507fdc98354e0000000000000000000000000000000000000000000000000000000095945050505050565b6001600160a01b038416611bb3576040517fe602df050000000000000000000000000000000000000000000000000000000081525f6004820152602401611193565b6001600160a01b038316611bf5576040517f94280d620000000000000000000000000000000000000000000000000000000081525f6004820152602401611193565b6001600160a01b038085165f90815260016020908152604080832093871683529290522082905580156111aa57826001600160a01b0316846001600160a01b03167f8c5be1e5ebec7d5bd14f71427d1e84f3dd0314c0f7b2291e5b200ac8c7c3b92584604051611c6791815260200190565b60405180910390a350505050565b6001600160a01b038316611c9f578060025f828254611c949190613e0e565b90915550611d289050565b6001600160a01b0383165f9081526020819052604090205481811015611d0a576040517fe450d38c0000000000000000000000000000000000000000000000000000000081526001600160a01b03851660048201526024810182905260448101839052606401611193565b6001600160a01b0384165f9081526020819052604090209082900390555b6001600160a01b038216611d4457600280548290039055611d62565b6001600160a01b0382165f9081526020819052604090208054820190555b816001600160a01b0316836001600160a01b03167fddf252ad1be2c89b69c2b068fc378daa952ba7f163c4a11628f55a4df523b3ef83604051611da791815260200190565b60405180910390a3505050565b5f838302817fffffffffffffffffffffffffffffffffffffffffffffffffffffffffffffffff85870982811083820303915050808411611df2575f80fd5b805f03611e0457508290049050610937565b5f848688095f868103871696879004966002600389028118808a02820302808a02820302808a02820302808a02820302808a02820302808a02909103029181900381900460010186841190950394909402919094039290920491909117919091029150509392505050565b80600f81900b8114611ea457611ea47f93dafdf100000000000000000000000000000000000000000000000000000000612640565b919050565b6040517f90bfb865000000000000000000000000000000000000000000000000000000008082526001600160a01b03851660048301527fffffffff0000000000000000000000000000000000000000000000000000000084166024830152608060448301526020601f3d018190040260a0810160648401523d608484015290913d5f60a483013e60048260a4018201527fffffffff0000000000000000000000000000000000000000000000000000000084168260c4018201528160e40181fd5b5f80611f7c6107ef602086018661364d565b6040517f70a082310000000000000000000000000000000000000000000000000000000081523060048201526001600160a01b0391909116906370a0823190602401602060405180830381865afa158015611fd9573d5f803e3d5ffd5b505050506040513d601f19601f82011682018060405250810190611ffd9190613c41565b90505f6120136107ef604087016020880161364d565b6040517f70a082310000000000000000000000000000000000000000000000000000000081523060048201526001600160a01b0391909116906370a0823190602401602060405180830381865afa158015612070573d5f803e3d5ffd5b505050506040513d601f19601f820116820180604052508101906120949190613c41565b90505f6120a76107ef602088018861364d565b6001600160a01b03166307a2d13a846040518263ffffffff1660e01b81526004016120d491815260200190565b602060405180830381865afa1580156120ef573d5f803e3d5ffd5b505050506040513d601f19601f820116820180604052508101906121139190613c41565b90505f6121296107ef6040890160208a0161364d565b6001600160a01b03166307a2d13a846040518263ffffffff1660e01b815260040161215691815260200190565b602060405180830381865afa158015612171573d5f803e3d5ffd5b505050506040513d601f19601f820116820180604052508101906121959190613c41565b90505f6121ad6118096110a4368b90038b018b613b57565b5050509050611437816121c66121c1610b8f565b612648565b6121d16121c1610adb565b8686612945565b805f811215611ea457611ea47f93dafdf100000000000000000000000000000000000000000000000000000000612640565b5f7f00000000000000000000000000000000000000000000000000000000000000006001600160a01b0316635a6bcfda6005604051806080016040528061224f610b8f565b60020b815260200161225f610adb565b60020b8152602081018790525f604091820152517fffffffff0000000000000000000000000000000000000000000000000000000060e085901b1681526122aa929190600401613e21565b60408051808303815f875af11580156122c5573d5f803e3d5ffd5b505050506040513d601f19601f820116820180604052508101906122e99190613eb6565b5092915050565b5f805f805f6122fe86612a05565b6040517f1e2eaeaf000000000000000000000000000000000000000000000000000000008152600481018290529091505f906001600160a01b03891690631e2eaeaf90602401602060405180830381865afa15801561235f573d5f803e3d5ffd5b505050506040513d601f19601f820116820180604052508101906123839190613c41565b90506001600160a01b03811695508060a01c60020b945062ffffff8160b81c16935062ffffff8160d01c169250505092959194509250565b5f8360020b8560020b12156123fd576123f66123f06123eb6123dc87612648565b6123e587612648565b8a612a41565b611e6f565b60801b90565b9050610910565b8260020b8560020b1215612434576123f661241e6123eb846123e587612648565b61141b6123eb61242d88612648565b868b612a79565b61090d5f61141b6123eb61244788612648565b61245088612648565b8b612a79565b5f61246a6001600160a01b03841683612aa5565b905080515f1415801561248e57508080602001905181019061248c9190613ed8565b155b15611089576040517f5274afe70000000000000000000000000000000000000000000000000000000081526001600160a01b0384166004820152602401611193565b5f8061251e306124de610b8f565b6124e6610adb565b604080515f6026820181905260068201939093526003810193909352928252603a600c83012092820181905260208201819052905290565b90506109376125356110a436869003860186613b57565b6001600160a01b037f0000000000000000000000000000000000000000000000000000000000000000169083612ab2565b5f61259b6001600160a01b037f0000000000000000000000000000000000000000000000000000000000000000163084612b42565b90505f8113156125e5576125db6001600160a01b0383167f000000000000000000000000000000000000000000000000000000000000000030845f612b91565b6125e5828261193b565b5f811215611490576125ff826125fa83613c85565b611494565b6114907f00000000000000000000000000000000000000000000000000000000000000003061262d84613c85565b6001600160a01b0386169291905f612cc9565b805f5260045ffd5b60020b5f60ff82901d80830118620d89e881111561268a5761268a7f8b86327a0000000000000000000000000000000000000000000000000000000084612f4a565b7001fffcb933bd6fad37aa2d162d1a59400160018216027001000000000000000000000000000000001860028216156126d3576ffff97272373d413259a46990580e213a0260801c5b60048216156126f2576ffff2e50f5f656932ef12357cf3c7fdcc0260801c5b6008821615612711576fffe5caca7e10e4e61c3624eaa0941cd00260801c5b6010821615612730576fffcb9843d60f6159c9db58835c9266440260801c5b602082161561274f576fff973b41fa98c081472e6896dfb254c00260801c5b604082161561276e576fff2ea16466c96a3843ec78b326b528610260801c5b608082161561278d576ffe5dee046a99a2a811c461f1969c30530260801c5b6101008216156127ad576ffcbe86c7900a88aedcffc83b479aa3a40260801c5b6102008216156127cd576ff987a7253ac413176f2b074cf7815e540260801c5b6104008216156127ed576ff3392b0822b70005940c7a398e4b70f30260801c5b61080082161561280d576fe7159475a2c29b7443b29c7fa6e889d90260801c5b61100082161561282d576fd097f3bdfd2022b8845ad8f792aa58250260801c5b61200082161561284d576fa9f746462d870fdf8a65dc1f90e061e50260801c5b61400082161561286d576f70d869a156d2a1b890bb3df62baf32f70260801c5b61800082161561288d576f31be135f97d08fd981231505542fcfa60260801c5b620100008216156128ae576f09aa508b5b7a84e1c677de54f3e99bc90260801c5b620200008216156128ce576e5d6af8dedb81196699c329225ee6040260801c5b620400008216156128ed576d2216e584f5fa1ea926041bedfe980260801c5b6208000082161561290a576b048a170391f7dc42444e8fa20260801c5b5f841315612935577fffffffffffffffffffffffffffffffffffffffffffffffffffffffffffffffff045b63ffffffff0160201c9392505050565b5f836001600160a01b0316856001600160a01b03161115612964579293925b846001600160a01b0316866001600160a01b031611612988576123f6858585612f59565b836001600160a01b0316866001600160a01b031610156129fa575f6129ae878686612f59565b90505f6129bc878986612fc3565b9050806fffffffffffffffffffffffffffffffff16826fffffffffffffffffffffffffffffffff16106129ef57806129f1565b815b92505050610910565b61090d858584612fc3565b6040515f90612a24908390600690602001918252602082015260400190565b604051602081830303815290604052805190602001209050919050565b5f8082600f0b12612a6857612a61612a5c8585856001613008565b6121d8565b5f03610f83565b610f83612a5c8585855f035f613008565b5f8082600f0b12612a9457612a61612a5c85858560016130d2565b610f83612a5c8585855f035f6130d2565b606061093783835f613130565b5f80612abe84846131e2565b6040517f1e2eaeaf000000000000000000000000000000000000000000000000000000008152600481018290529091506001600160a01b03861690631e2eaeaf906024015b602060405180830381865afa158015612b1e573d5f803e3d5ffd5b505050506040513d601f19601f820116820180604052508101906109109190613c41565b5f806001600160a01b0384165f526001600160a01b03831660205260405f209050846001600160a01b031663f135baaa826040518263ffffffff1660e01b8152600401612b0391815260200190565b8115612cc25780612c20576040517f0b0d9c090000000000000000000000000000000000000000000000000000000081526001600160a01b038681166004830152848116602483015260448201849052851690630b0d9c09906064015b5f604051808303815f87803b158015612c05575f80fd5b505af1158015612c17573d5f803e3d5ffd5b50505050612cc2565b836001600160a01b031663156e29f684612c49886001600160a01b03166001600160a01b031690565b6040517fffffffff0000000000000000000000000000000000000000000000000000000060e085901b1681526001600160a01b0390921660048301526024820152604481018590526064015f604051808303815f87803b158015612cab575f80fd5b505af1158015612cbd573d5f803e3d5ffd5b505050505b5050505050565b8115612cc2578015612d4e57836001600160a01b031663f5298aca84612cfe886001600160a01b03166001600160a01b031690565b6040517fffffffff0000000000000000000000000000000000000000000000000000000060e085901b1681526001600160a01b039092166004830152602482015260448101859052606401612bee565b6001600160a01b038516612e34576040517fa58411940000000000000000000000000000000000000000000000000000000081526001600160a01b03868116600483015285169063a5841194906024015f604051808303815f87803b158015612db5575f80fd5b505af1158015612dc7573d5f803e3d5ffd5b50505050836001600160a01b03166311da60b4836040518263ffffffff1660e01b815260040160206040518083038185885af1158015612e09573d5f803e3d5ffd5b50505050506040513d601f19601f82011682018060405250810190612e2e9190613c41565b50612cc2565b6040517fa58411940000000000000000000000000000000000000000000000000000000081526001600160a01b03868116600483015285169063a5841194906024015f604051808303815f87803b158015612e8d575f80fd5b505af1158015612e9f573d5f803e3d5ffd5b505050506001600160a01b0383163014612ecd57612ec86001600160a01b038616848685613232565b612ee1565b612ee16001600160a01b03861685846132ae565b836001600160a01b03166311da60b46040518163ffffffff1660e01b81526004016020604051808303815f875af1158015612f1e573d5f803e3d5ffd5b505050506040513d601f19601f82011682018060405250810190612f429190613c41565b505050505050565b815f528060020b60045260245ffd5b5f826001600160a01b0316846001600160a01b03161115612f78579192915b5f612fa3856001600160a01b0316856001600160a01b03166c01000000000000000000000000611db4565b9050610910612fbe84838888036001600160a01b0316611db4565b6132df565b5f826001600160a01b0316846001600160a01b03161115612fe2579192915b610f83612fbe836c010000000000000000000000008787036001600160a01b0316611db4565b5f836001600160a01b0316856001600160a01b03161115613027579293925b6001600160a01b0385166130415762bfc9215f526004601cfd5b7bffffffffffffffffffffffffffffffff000000000000000000000000606084901b166001600160a01b0386860316836130a657866001600160a01b03166130938383896001600160a01b0316611db4565b816130a0576130a0613c58565b04610f0a565b610f0a6130bd8383896001600160a01b0316613322565b886001600160a01b0316808204910615150190565b5f6001600160a01b038481169086160360ff81901d908101186c010000000000000000000000006fffffffffffffffffffffffffffffffff8516613117818484611db4565b9350845f83858409111684019350505050949350505050565b60608147101561316e576040517fcd786059000000000000000000000000000000000000000000000000000000008152306004820152602401611193565b5f80856001600160a01b031684866040516131899190613ef7565b5f6040518083038185875af1925050503d805f81146131c3576040519150601f19603f3d011682016040523d82523d5f602084013e6131c8565b606091505b50915091506131d8868383613352565b9695505050505050565b5f806131ed84612a05565b90505f6131fb600683613e0e565b6040805160208101879052908101829052909150606001604051602081830303815290604052805190602001209250505092915050565b6040516001600160a01b0384811660248301528381166044830152606482018390526111aa9186918216906323b872dd906084015b604051602081830303815290604052915060e01b6020820180517bffffffffffffffffffffffffffffffffffffffffffffffffffffffff83818316178352505050506133c7565b6040516001600160a01b0383811660248301526044820183905261108991859182169063a9059cbb90606401613267565b806fffffffffffffffffffffffffffffffff81168114611ea457611ea47f93dafdf100000000000000000000000000000000000000000000000000000000612640565b5f61332e848484611db4565b9050818061333e5761333e613c58565b838509156109375760010180610937575f80fd5b606082613367576133628261344c565b610937565b815115801561337e57506001600160a01b0384163b155b156133c0576040517f9996b3150000000000000000000000000000000000000000000000000000000081526001600160a01b0385166004820152602401611193565b5080610937565b5f8060205f8451602086015f885af1806133e6576040513d5f823e3d81fd5b50505f513d915081156133fd57806001141561340a565b6001600160a01b0384163b155b156111aa576040517f5274afe70000000000000000000000000000000000000000000000000000000081526001600160a01b0385166004820152602401611193565b80511561345c5780518082602001fd5b6040517f1425ea4200000000000000000000000000000000000000000000000000000000815260040160405180910390fd5b50565b602081525f82518060208401528060208501604085015e5f6040828501015260407fffffffffffffffffffffffffffffffffffffffffffffffffffffffffffffffe0601f83011684010191505092915050565b6001600160a01b038116811461348e575f80fd5b8035611ea4816134e4565b5f8060408385031215613514575f80fd5b823561351f816134e4565b946020939093013593505050565b5f60a0828403121561353d575f80fd5b50919050565b5f6080828403121561353d575f80fd5b5f8083601f840112613563575f80fd5b50813567ffffffffffffffff81111561357a575f80fd5b602083019150836020828501011115613591575f80fd5b9250929050565b5f805f805f61016086880312156135ad575f80fd5b85356135b8816134e4565b94506135c7876020880161352d565b93506135d68760c08801613543565b925061014086013567ffffffffffffffff8111156135f2575f80fd5b6135fe88828901613553565b969995985093965092949392505050565b5f805f60608486031215613621575f80fd5b833561362c816134e4565b9250602084013561363c816134e4565b929592945050506040919091013590565b5f6020828403121561365d575f80fd5b8135610937816134e4565b5f8060408385031215613679575f80fd5b8235613684816134e4565b91506020830135613694816134e4565b809150509250929050565b5f6060828403121561353d575f80fd5b5f805f805f61014086880312156136c4575f80fd5b85356136cf816134e4565b94506136de876020880161352d565b93506136ed8760c0880161369f565b925061012086013567ffffffffffffffff8111156135f2575f80fd5b5f60208284031215613719575f80fd5b5035919050565b5f805f805f805f6101a0888a031215613737575f80fd5b8735613742816134e4565b96506137518960208a0161352d565b95506137608960c08a01613543565b94506101408801359350610160880135925061018088013567ffffffffffffffff81111561378c575f80fd5b6137988a828b01613553565b989b979a50959850939692959293505050565b8060020b811461348e575f80fd5b8035611ea4816137ab565b5f805f8061010085870312156137d8575f80fd5b84356137e3816134e4565b93506137f2866020870161352d565b925060c0850135613802816134e4565b915060e0850135613812816137ab565b939692955090935050565b5f6020828403121561382d575f80fd5b81356fffffffffffffffffffffffffffffffff81168114610937575f80fd5b5f805f805f806101608789031215613862575f80fd5b863561386d816134e4565b955061387c886020890161352d565b945061388b8860c0890161369f565b9350610120870135925061014087013567ffffffffffffffff8111156138af575f80fd5b6138bb89828a01613553565b979a9699509497509295939492505050565b5f805f805f8061012087890312156138e3575f80fd5b86356138ee816134e4565b95506138fd886020890161352d565b945060c0870135935060e0870135925061010087013567ffffffffffffffff8111156138af575f80fd5b8151151581526101c081016020830151613945602084018215159052565b506040830151613959604084018215159052565b50606083015161396d606084018215159052565b506080830151613981608084018215159052565b5060a083015161399560a084018215159052565b5060c08301516139a960c084018215159052565b5060e08301516139bd60e084018215159052565b506101008301516139d361010084018215159052565b506101208301516139e961012084018215159052565b506101408301516139ff61014084018215159052565b50610160830151613a1561016084018215159052565b50610180830151613a2b61018084018215159052565b506101a08301516122e96101a084018215159052565b5f805f60e08486031215613a53575f80fd5b8335613a5e816134e4565b9250613a6d856020860161352d565b915060c0840135613a7d816134e4565b809150509250925092565b600181811c90821680613a9c57607f821691505b60208210810361353d577f4e487b71000000000000000000000000000000000000000000000000000000005f52602260045260245ffd5b7f4e487b71000000000000000000000000000000000000000000000000000000005f52601160045260245ffd5b5f81600f0b7fffffffffffffffffffffffffffffffff800000000000000000000000000000008103613b3457613b34613ad3565b5f0392915050565b62ffffff8116811461348e575f80fd5b8035611ea481613b3c565b5f60a0828403128015613b68575f80fd5b5060405160a0810167ffffffffffffffff81118282101715613bb1577f4e487b71000000000000000000000000000000000000000000000000000000005f52604160045260245ffd5b604052613bbd836134f8565b8152613bcb602084016134f8565b6020820152613bdc60408401613b4c565b6040820152613bed606084016137b9565b6060820152613bfe608084016134f8565b60808201529392505050565b5f7fffffffffffffffffffffffffffffffffffffffffffffffffffffffffffffffff8203613c3a57613c3a613ad3565b5060010190565b5f60208284031215613c51575f80fd5b5051919050565b7f4e487b71000000000000000000000000000000000000000000000000000000005f52601260045260245ffd5b5f7f80000000000000000000000000000000000000000000000000000000000000008203613cb557613cb5613ad3565b505f0390565b8135613cc6816134e4565b81547fffffffffffffffffffffffff0000000000000000000000000000000000000000166001600160a01b03821617825550600181016020830135613d0a816134e4565b81547fffffffffffffffffffffffff0000000000000000000000000000000000000000166001600160a01b038216178255506040830135613d4a81613b3c565b81546060850135613d5a816137ab565b8060b81b79ffffff00000000000000000000000000000000000000000000001676ffffff00000000000000000000000000000000000000008460a01b167fffffffffffff000000000000ffffffffffffffffffffffffffffffffffffffff841617178455505050505f6080830135613dd1816134e4565b6002830180547fffffffffffffffffffffffff0000000000000000000000000000000000000000166001600160a01b0383161790559050806111aa565b8082018082111561089757610897613ad3565b82546001600160a01b0390811682526001840154808216602084015260a081811c62ffffff16604085015260b89190911c600290810b606085015285015490911660808301525f90613e9c90830184805160020b8252602081015160020b602083015260408101516040830152606081015160608301525050565b610140610120830152610f8361014083015f815260200190565b5f8060408385031215613ec7575f80fd5b505080516020909101519092909150565b5f60208284031215613ee8575f80fd5b81518015158114610937575f80fd5b5f82518060208501845e5f92019182525091905056fea164736f6c634300081a000a",
        "linkReferences": {}
    },
    "methodIdentifiers": {
        "addReHypothecatedLiquidity(uint128)": "8f743357",
        "afterAddLiquidity(address,(address,address,uint24,int24,address),(int24,int24,int256,bytes32),int256,int256,bytes)": "9f063efc",
        "afterDonate(address,(address,address,uint24,int24,address),uint256,uint256,bytes)": "e1b4af69",
        "afterInitialize(address,(address,address,uint24,int24,address),uint160,int24)": "6fe7e6eb",
        "afterRemoveLiquidity(address,(address,address,uint24,int24,address),(int24,int24,int256,bytes32),int256,int256,bytes)": "6c2bbe7e",
        "afterSwap(address,(address,address,uint24,int24,address),(bool,int256,uint160),int256,bytes)": "b47b2fb1",
        "afterSwapCount(bytes32)": "dacdbe77",
        "allowance(address,address)": "dd62ed3e",
        "approve(address,uint256)": "095ea7b3",
        "balanceOf(address)": "70a08231",
        "beforeAddLiquidity(address,(address,address,uint24,int24,address),(int24,int24,int256,bytes32),bytes)": "259982e5",
        "beforeAddLiquidityCount(bytes32)": "c6939957",
        "beforeDonate(address,(address,address,uint24,int24,address),uint256,uint256,bytes)": "b6a8b0fa",
        "beforeInitialize(address,(address,address,uint24,int24,address),uint160)": "dc98354e",
        "beforeRemoveLiquidity(address,(address,address,uint24,int24,address),(int24,int24,int256,bytes32),bytes)": "21d0ee70",
        "beforeRemoveLiquidityCount(bytes32)": "db6a9451",
        "beforeSwap(address,(address,address,uint24,int24,address),(bool,int256,uint160),bytes)": "575e24b4",
        "beforeSwapCount(bytes32)": "5c338d32",
        "decimals()": "313ce567",
        "getHookPermissions()": "c4e833ce",
        "getTickLower()": "647504be",
        "getTickUpper()": "32c684ad",
        "getVaultAddress(address)": "ef88c31e",
        "name()": "06fdde03",
        "poolManager()": "dc4c90d3",
        "removeReHypothecatedLiquidity(address)": "273264aa",
        "setVaults(address,address)": "4c451a6a",
        "symbol()": "95d89b41",
        "totalSupply()": "18160ddd",
        "transfer(address,uint256)": "a9059cbb",
        "transferFrom(address,address,uint256)": "23b872dd"
    },
    "id": 88
}